:020000040000FA
:06000000020F1D0205C203
:03002B00020D576C
:03004300020BF3BA
:030053000204F3B1
:100083000205570101FF01010503010F10FEFFC720
:1000930017C717C717C71783167D16C717802500FD
:1000A3000000004426000000000C0000000C0001CA
:1000B300FFFF0102004807000000BB07E8036400DC
:1000C3006400B80102020020000005020701051EBA
:1000D30002051E020A0A03B80B02803E010201ABAD
:1000E300AC0A1401E096511800020200000000005F
:1000F300010106120F3C601D120F697005191919D1
:10010300801A120DC9701F120DB4C37003E6673352
:1001130019191940071818182208080874FFF61847
:10012300F618F618F622120DB46017120FA87021F4
:1001330092F0120FB27019501720F0140808080932
:100143000909E7F61819E7F61819E7F61819E7F693
:1001530022120FB260E6E869701F0808E62480F6F1
:1001630008E436F618547FB47F0CE654806007F633
:10017300E418F618F622181822E9C6CC08C6CD08EA
:10018300C6CE08C6CFC0E0E8C0E0EAC0E0EBC0E0FE
:1001930009E9F809E7FA09E7FBE6F918E6F8C3EC19
:1001A30098ED99EE9AEBC2E7F5F0EFC2E795F050C0
:1001B3000E600CEBCFFBEACEFAE9CDF9E8CCF8EA16
:1001C300A2E7D2E7FAEB33FB13F5F0EEA2E7D2E7AF
:1001D300FEEF33FFC5F013A2E730E601B313C5F01A
:1001E300C3C0E0C0F07F00C39BFB605B9418600C4E
:1001F300401AD0E023F9D0E0F80202D48AF0E948AB
:100203006003D2F0E4AFF0FAF9F8803BEB30E40D91
:1002130089F0EA6003D2F0E4AFF0F9CAF8EB30E317
:100223000D88F0EF6002D2F0AFF0E4CAC9F8EB54E6
:10023300076014FBC3EA13FAE913F9E813F8EF13A1
:100243005002D2E0FFDBEDD0E0C0E030E739C3E499
:100253009FFFF5F0EC98FC42F0ED99FD42F0EE9A29
:10026300FE42F0D0E0F9D0E0F8E5F0607AE923F956
:10027300EE20E742D8028067C3EF33FFEC33FCED97
:1002830033FDEE33FE80EAEC28FCED39FDEE3AFE59
:10029300D0E023F9D0E0F84002801BC3EE13FEED5B
:1002A30013FDEC13FCEF135002D2E0FF08B8000675
:1002B3007F7F74FF802EEF3350178CF020F00260A5
:1002C300100CBC000C0DBD00080EBE000408E86055
:1002D300DFE933E813FFEE2313FE4F4D4C8008E9AB
:1002E3005480FFE4FEFDFCEE33EF33F47004FCFDB9
:1002F3007E80D0E0FBD0E0FAD0E0F8D0E0CFC618A3
:10030300CEC618CDC618CCC6F922120F3C700418FD
:10031300181822120F69700D74FFF61819F61819C0
:10032300F61819F622E7548066F6120FB2700F1210
:100333000FA870F014F608F608F608F680D1120F2D
:10034300A8700CF608F608768008E6447F80EC1265
:100353000DB7700C120DCC60BFE65480F6E480BB81
:10036300120DCC700519191980A5E869700C763F38
:1003730018768018F618F6E8F922E6CDC0E018ECF6
:10038300C0E0E633CD33CDD313F6E719FCE71919F3
:1003930033CC33C3947F400ECD9D502408E6548064
:1003A300F6E418F6800FF4043D14501408E6447F75
:1003B300F6187680E418F618F6D0E0FCD0E0FD22BB
:1003C300CCD313CCFD18E4C6CBC0E018E4C6CAC036
:1003D300E00808ED08C633E613F618E433C675F0F3
:1003E30003C3CA97CA09CB97CB199C40047D0880E5
:1003F3002EBD00030204B616B6FF0506060816183E
:10040300C3CA33CACB33CB33CA27CA09CB37CB19B9
:100413003CC37D08803E187D0820E75CC633C6CA0E
:1004230033CACB33CB33DDF1D5F0EB30E77BCA975F
:10043300CA09CB974ACB199C406F4B7025E620E045
:10044300218066187D08C3CA97CA09CB97CB199C2C
:10045300D3C633C6CA33CACB33CB3350C9DDE7D592
:10046300F0E1D3E4C636C608C636C608C636C608A3
:10047300C636C61818188031C3CA97CA09CB97CB9A
:10048300199CB34097C633C6CA33CACB33CB33DDCB
:1004930034D5F02EC6A2E0C640C8CA27CA09CB3756
:1004A300194A70BECB3CB480B90808E63308E6337A
:1004B300601F181818D0E0FAD0E0FBD0E0FCD0E0C1
:1004C300FD22187D08CA27CA09CB37CB193CD38034
:1004D3008013F618E4B67F11F618B6FF0EF618C6A9
:1004E3000470D20808768080CAF618F618F680C51C
:1004F300C0E074F212086AA2AFE433FED2AFE5A7FC
:10050300FFE5A1F5085F54106006121EF375A1EF15
:10051300E5085F54086008121EF975A1F7802BEFF8
:10052300A2E0C0D0E508A2E092F0120E6A15818223
:10053300F05017906198E0F8900C96E0C398A2D21F
:1005430065D0335002E8F075A1FEEEA2E092AF7FD2
:100553000102097EC0E074F212086AA2AFE433FE1E
:10056300D2AF9061A4E0F8759B00E5915854086000
:10057300087591F7121F41802AE5915854106008BD
:100583007591EF121F47801BE8A2E0C0D0E591A24E
:10059300E092F0120E6A158182F05007E0C2E0F09B
:1005A3001220979061A3E0F8E5E9585404600E1215
:1005B300206D75E9FB906193E0A2E640F2808BC069
:1005C300E074F212086AA2AFE433FED2AF9061A5E1
:1005D300E0F8E5BF585404600675BFFB1220AF0274
:1005E300054DC3E498F8E499F91206268026C3E47E
:1005F3009AFAE49BFBE920E7E9120626E498F8E47B
:1006030099F922C3E498F8E499F9120626E498F8D4
:10061300E499F9C3E49AFAE49BFB22EB20E7CFE9E0
:1006230020E7E0B90010BB0008E88AF084F8AAF0DC
:1006330022E4FBC8FA22EB70227B10C833C8C9330B
:10064300C9335007C39AC3DBF280069A50012ADBF1
:10065300EAC833F4C8C933F4C9FA2275F008E4C808
:1006630033C8C933C933C99AC99B5004C92AC93B82
:10067300D5F0ECFBC833F4C8E4C9FA221206BF2054
:10068300F01430E72B74FFFCFBFA747F8022E4FC48
:10069300FBFA7480801AB48008BC00F2BB00EF80C0
:1006A3000F50EBF9E4C39AFAE49BFBE49CFCE49956
:1006B300C6CC18C6CB18C6CA18C6F922E4C9C608E0
:1006C300CAC608CBC6D3330308CCC63392F0C3944F
:1006D3007F402E94184019C9B90704CACBCC2250C5
:1006E30025C309CA33CACB33CBCC33CC33D9F42299
:1006F300F4600DC9CCC313CB13CBCA13CAD9F6CC40
:1007030022E4FCFBFA2214FCFBFA22080808EAC0E4
:10071300E0EBC0E086F0E7A4FA180986F0E7A42A24
:10072300FA180986F0E7A42AFA180986F0E7A42A3A
:10073300FA1986F0E7A4FBE5F02AFA190886F0E730
:10074300A42BFBE5F03AFA190886F0E7A42BFBE5A6
:10075300F03AFA18180986F0E7A4C5F02BFBE43A3F
:10076300FA1908E7C5F0C6A426F6E5F03BFBE43A20
:10077300FA1886F0E7A4F6E5F00826F6E43B08F657
:10078300E43A08F6D0E0FBD0E0FA22E4CFC0E0E49C
:10079300CEC0E0E4CDC0E0E4CCC0E075F020C3E619
:1007A30033F608E633F608E633F608E633F61818A8
:1007B30018EC33FCED33FDEE33FEEF33FFC3EC9760
:1007C30009ED9709EE9709EF97191919400FFFECF7
:1007D30097FC09ED97FD09EE97FE191906D5F0BEB2
:1007E300ECF709EDF709EEF709EFF7191919D0E05E
:1007F300FCD0E0FDD0E0FED0E0FF222518C582C08A
:10080300E0E51934FFC583C0E0E518C3958224F8F9
:1008130010AF08858319858218800885831985821E
:1008230018D2AFCEF0A3E520F0A37808E608F0A332
:10083300DEFAEFF0A3E58124FAF8E608F0A3E60870
:10084300F0A3E608F0A30808E608F0A3E608F0A37F
:1008530015811581D0E0FED0E0F815811581158151
:10086300E8C0E0EEC0E022C0D02518C582C0E0E5B4
:100873001934FFC583C0E0E518C3958224F310AF94
:10088300088583198582188008858319858218D283
:10089300AFC8F0A3E9F0A3EAF0A3EBF0A37908E76C
:1008A30009F0A3D8FAECF0A3EDF0A3EEF0A3EFF078
:1008B300A3D0E0F0A3D0E0F0A3D0E0F0A3E520F0D4
:1008C300A3E5F0F0A322E9799EC608CAC608CBC601
:1008D30008CCC6C370207996CACBCC7019798ECB5D
:1008E300CC70137986CC700EF9802ACA33CACB3305
:1008F300CBCC33CC331930E7F2CCCBCA33501470A2
:1009030004EA30E00DE4CA3ACACB3BCBCC3CCC5032
:100913000209C3E913C6CC182313C6CB18C6CA18D9
:10092300C6F922120F9DB90003020968E49003017E
:10093300786079108002F0A3D8FCD9FA901260AAEB
:1009430082AB83900086787179018015E493A3AC20
:1009530082AD838A828B83F0A3AA82AB838C828D40
:1009630083D8E9D9E77582427583F47403120CB610
:100973007582857583237400120CB68519838518D7
:1009830082E0C0E0A3E0F9A3E0FAA3E0FBA37808C8
:10099300E0F608A3DFFAE0FCA3E0FDA3E0FEA3E09A
:1009A300FFA3E0C0E0A3E0C0E0A3E0F5D0A3E0F53F
:1009B30020A3E0A3F5F010AF088583198582188082
:1009C30008858319858218D2AFD082D083D0E0F80E
:1009D300D0E032150075F0108E1A8F1B85821F85AB
:1009E300831E851882851983E0CEA3E0CF851F82FD
:1009F300851E83EBC9EAC8EDCBECCAC3E833C8E96B
:100A030033C9EA33CAEB33CBC3EA9EF51DEB9FF53B
:100A13001CB35004AB1CAA1DEC33CCED33CDD5F085
:100A2300DAAE1AAF1B22D083D082ECC0E0EDC0E077
:100A3300E493A3FCE493A3FDED4C600D120B01ECD6
:100A430024FFFCED34FFFD80EFE493A3FCE493A3C8
:100A5300FDED4C600D120B9EEC24FFFCED34FFFD0D
:100A630080EFD0E0FDD0E0FCE493A3C0E0E493C0CA
:100A7300E022D083D082E9C0E0E493A3C386F0C52B
:100A8300F095F0F908E493A386F0C5F095F0700BA8
:100A9300E493A3C3994005E9048002A3E475F0023B
:100AA300A42582F582E5F03583F583D0E0F9E4935C
:100AB300A3C0E0E493C0E022851983851882E0A3F4
:100AC300FEE0A3F5207808E0A3F608DFFAE0A3FF31
:100AD300E0A3C0E0E0A3C0E0E0A3C0E0E0A3C0E087
:100AE300E0A3C0E010AF08858218858319800885CC
:100AF3008218858319D2AFD083D082020CBCC0E0A8
:100B0300C3E49396087401939618400FE4936670B8
:100B13000808740193661870007019A3A3C3E493C3
:100B230096087401939618A3A3400DD0E0D0E0D0AB
:100B3300E0020A65A3A3A3A3A3A3D0E022740480C5
:100B43000474028000CCC0E0EDC0E0E518C39CCC87
:100B5300AD1950011D10AF068C188D1980068C1825
:100B63008D19D2AF120C38D0E0FDD0E0FC22740214
:100B73008000CCC0E0EDC0E0E518C39CCCAD1950BB
:100B8300011D10AF068C188D1980068C188D19D293
:100B9300AF120C16D0E0FDD0E0FC22C0E0C0F0881C
:100BA300F0E4936670080874019366187000A8F067
:100BB300A3A3700BD0F0D0E0D0E0D0E0020A65A38D
:100BC300A3D0F0D0E022D083D082CCC0E0E493A3C2
:100BD3006006120C591470FAE493A36006120D8890
:100BE3001470FAD0E0FCE493A3C0E0E493C0E022E5
:100BF300C0E074F212086AA2AFE433FED2AFC2C0FF
:100C0300E5D1A2E45003121E5DEEA2E092AF7F0194
:100C130002097ECAC0E0E493A3C582CCC582C58322
:100C2300CDC583F0A3C582CCC582C583CDC583DA88
:100C3300E5D0E0CA22CAC0E0E0A3C582CCC582C524
:100C430083CDC583F0A3C582CCC582C583CDC583BF
:100C5300DAE6D0E0CA22C0E0E493A3D39C5010E4C8
:100C630093A3C39C400AD0E0D0E0D0E0020BE6A3FC
:100C7300A3A3D0E0227009080808226016181818E8
:100C8300C6C333C608C633C608C633C608C633C68A
:100C9300D5E0EA22C008C3E096F50808A3E096422F
:100CA3000808A3E096420808A3E09645087001D31C
:100CB300D00822C09FF59FE473D09F22D083D082B7
:100CC300C09FE493C0E0740193C0E0740293F59F66
:100CD300227404800A74038006740280027401C0C3
:100CE300E0F404120CEFD0E0120F78222518F582FD
:100CF30010AF08F518400215198008F518400215C1
:100D030019D2AF85198322BB0102E722C082C083B7
:100D130089828A83BB0003E08002E493D083D0827C
:100D230022C0D0251810AF08F51850020519800805
:100D3300F51850020519D2AFD0D022601608080862
:100D4300C6C313C618C613C618C613C618C613C619
:100D5300D5E0EA22C0E0C0D0E8C0E0E5A8D2AFC247
:100D6300C7A2E792AFD0E0F8D0D0D0E032C3E0C65C
:100D730096F608A3E0C696F608A3E0C696F608A37F
:100D8300E0C696F622C0E0E493A36C7009D0E0D0ED
:100D9300E0D0E0020BE6A3A3D0E022251810AF08B1
:100DA300F518400215198008F51840021519D2AF3D
:100DB30022191919E7094709700AE709C3337005AE
:100DC300E733F4220922181818E6084608700AE6E1
:100DD30008C3337005E633F4220822E7667010086F
:100DE30009E766700A0809E76670040809E76622DE
:100DF300E066701008A3E066700A08A3E06670045A
:100E030008A3E06622C3E09608A3E09608A3E09651
:100E130008A3E096A2D265D03322C3E096F008A3DC
:100E2300E096F008A3E096F008A3E096F022E62708
:100E3300F60809E637F60809E637F60809E637F64D
:100E430022E026F608A3E036F608A3E036F608A368
:100E5300E036F622E026F008A3E036F008A3E036F9
:100E6300F008A3E036F022C0E0E8C0E0E58124FC0E
:100E7300F8E6A2E7D0E0F8D0E022E056F608A3E0D7
:100E830056F608A3E056F608A3E056F622E657F610
:100E93000809E657F60809E657F60809E657F62261
:100EA300E647F60809E647F60809E647F60809E6BD
:100EB30047F622E056F008A3E056F008A3E056F008
:100EC30008A3E056F022700422600D18C6C333C68F
:100ED30008C633C6D5E0F41822E4C396F608E496B0
:100EE300F608E496F608E496F622C6F4C608C6F4B5
:100EF300C608C6F4C608C6F4C622C3E09608A3E033
:100F03009608A3E09608A3E09622C3E7960809E7AC
:100F1300960809E7960809E7962275D0007581407F
:100F230075180175190300020926E6F008A3E6F017
:100F330008A3E6F008A3E6F022E6084608C3134632
:100F430008336002E633F422600C08C6C313C618E4
:100F5300C613C6D5E0F422E0F608A3E0F608A3E042
:100F6300F608A3E0F622E7094709C31347093360EC
:100F730002E733F422CAC0E0E6F0A308DAFAD0E0CD
:100F8300FA22EAF0A3EBF0A3ECF0A3EDF022E0FAEF
:100F9300A3E0FBA3E0FCA3E0FD22E5C754F8440172
:100FA300F5C7790122E7C33319471947194722E6E1
:100FB300C333184618461846222518F582E4351916
:100FC300F58322C2AF75D69F02000022120CBFAB7D
:100FD3002900120CBF352A00120CBFD92A00120CAB
:100FE300BF212B00120CBF5B2B00120CBF842B0004
:100FF300120CBF9D2B00120CBFC32B00120CBFFEA3
:101003002B00120CBF422C00120CBF692C00120CD7
:10101300BFBA2C00120CBF6A2D00120CBF222E0087
:10102300120CBFEA2E00120CBFAA2F00120CBFEE47
:101033002F00120CBF133000120CBF563000120CDD
:10104300BFA33000120CBFFB3100120CBF81320072
:10105300120CBF9F3200120CBFC93200120CBFE347
:101063003200120CBFF23200120CBFFD3200120C20
:10107300BFBD3300120CBF163400120CBFD83400AE
:10108300120CBFE03400120CBF643500120CBFAA6F
:101093003500120CBF2B3600120CBF973600120C12
:1010A300BFC23700120CBFE73700120CBF5D380018
:1010B300120CBFEF3800120CBFAF3900120CBFCEB9
:1010C3003900120CBFDD3A00120CBFEF3A00120CCC
:1010D300BF5F3B00120CBF893B00120CBF173C00E3
:1010E300120CBF503C00120CBF9C3C00120CBFB84A
:1010F3003D00120CBF014000120CBF0C4000120C4B
:10110300BF174000120CBF224000120CBF2C40003E
:10111300120CBF374000120CBF514000120CBF5BD2
:101123004000120CBF654000120CBF704000120C4F
:10113300BF984000120CBFF34000120CBFFD4000EB
:10114300120CBF214100120CBF454100120CBFA37A
:101153004100120CBFE74100120CBF034200120C06
:10116300BF7A4200120CBFB24200120CBFFE420013
:10117300120CBF5B4300120CBF154400120CBFF9E5
:101183004500120CBF524600120CBF824700120CDE
:10119300BFA84700120CBF314900120CBFAD4C0071
:1011A300120CBF7F4E00120CBF485000120CBFF54B
:1011B3005000120CBF605200120CBFFF5200120C01
:1011C300BF445300120CBFAE5300120CBFBD5300FB
:1011D300120CBF445600120CBFF65700120CBF632B
:1011E3005800120CBF425900120CBF5B5A00120C7C
:1011F300BFD85B00120CBFF75B00120CBF4C5C0046
:10120300120CBF515D00120CBF795D00120CBFD1EF
:101213005D00120CBFB05E00120CBFF45E00120C36
:10122300BF3F5F00120CBFAA5F00120CBFEB600050
:10123300120CBF4F6100120CBF9D6200120CBFFD68
:101243006400120CBF2E6500120CBFE66600120C80
:10125300BF3B6700120CBF3F6800120CBFDC680085
:10126300120CBF356900120CBFE86900120CBF8A6B
:101273006A00120CBF2A6B00120CBFCF6B00120C5A
:10128300BF728201120CBFB18201120CBFF884013C
:10129300120CBF428501120CBF5D8601120CBFC543
:1012A3008601120CBFFA8601120CBF6E8801120C64
:1012B300BFF18A01120CBF1A8C01120CBFB08C0152
:1012C300120CBFB89501120CBF4D9601120CBF341E
:1012D3009901120CBF279A01120CBF959A01120CA7
:1012E300BFDB9B01120CBFBD9C01120CBFA29E0170
:1012F300120CBFB3A001120CBF1DA101120CBFEF52
:10130300A101120CBF1DA201120CBFDAA201120C23
:10131300BFB1A301120CBF78A401120CBF1CA5011D
:10132300120CBF45A501120CBF67A501120CBFBD6E
:10133300A701120CBF95A801120CBFD9A801120C6A
:10134300BF41A901120CBFF9A901120CBF2BAA01BD
:10135300120CBF6FAA01120CBFA5AA01120CBFF198
:10136300AA01120CBF46AB01120CBF4BAB01120C0E
:10137300BF9EAB01120CBFC3AB01120CBFD2AC01B9
:10138300120CBF36AD01120CBFA6AD01120CBF3259
:10139300AE01120CBFFFB001120CBFE3B101120C7E
:1013A300BF66B301120CBF9CB501120CBF4AB60154
:1013B300120CBFFAB601120CBF3BB901120CBFDE0F
:1013C300B901120CBF25BA01120CBFD1BB01120C1B
:1013D300BFE5BB01120CBFEFBB01120CBF17BC0171
:1013E300120CBF23BC01120CBF42BC01120CBF364E
:1013F300BE01120CBF91BE01120CBFFDBE01120C47
:10140300BF4CC001120CBF90C001120CBF38C10108
:10141300120CBF1BC201120CBFC6C201120CBF12B9
:10142300C401120CBF10C501120CBFB6C501120CCA
:10143300BF46C601120CBF5DC601120CBF94C601A4
:10144300120CBF9EC601120CBFA9C601120CBFC766
:10145300C601120CBF0BC701120CBF68C701120CE7
:10146300BF8DC701120CBFA7C701120CBF33C80140
:10147300120CBF50C901120CBFBDC901120CBFA48D
:10148300CA01120CBFCBCA01120CBF3FCB01120C15
:10149300BFBACB01120CBFBECC01120CBFB4CD013D
:1014A300120CBF63CE01120CBF76CF01120CBF1218
:1014B300D001120CBF9FD001120CBF7DD101120CC1
:1014C300BFB5D101120CBF0DD201120CBFD6D20190
:1014D300120CBFF7D201120CBF7ED301120CBFA2B4
:1014E300D301120CBFC4D301120CBF0DD401120CD3
:1014F300BF23D601120CBF0AD701120CBFBBD70101
:10150300120CBFF1D901120CBF41DA01120CBF81D9
:10151300DA01120CBFC3DA01120CBF1FDB01120C7C
:10152300BF4DDB01120CBF71DB01120CBFC4DB0129
:10153300120CBFF2DB01120CBF2BDC01120CBF80BB
:10154300DC01120CBFE6DC01120CBF3ADE01120C07
:10155300BF5DE001120CBFCAE001120CBFF3E00152
:10156300120CBF7EE101120CBFE5E101120CBF308A
:10157300E201120CBF54E201120CBF78E201120C1B
:10158300BFD3E201120CBFEEE201120CBFA7E301CD
:10159300120CBFF78204120CBF368304120CBF78FF
:1015A3008002120CBFBE8002120CBF9E8102120C7D
:1015B300BFA08202120CBFA38302120CBF2F8502AD
:1015C300120CBF8D8502120CBF4A8602120CBF6833
:1015D3008702120CBFD98702120CBF158802120CA6
:1015E300BF638802120CBF6D8802120CBFB1880260
:1015F300120CBF0D8902120CBFA88902120CBF2561
:101603008A02120CBFF48A02120CBF8D8B02120CD9
:10161300BFAD8B02120CBFE38B02120CBF148C0202
:10162300120CBFD58C02120CBFE58C02120CBF3911
:101633008D02120CBF548D02120CBF668D02120C68
:10164300BF6F8D02120CBFC98D02120CBF258E0213
:10165300120CBF718E02120CBF8C8E02120CBFBD16
:101663008E02120CBFDA8E02120CBFE68E02120C2F
:10167300BF5A9002120CBF739002120CBFDA900291
:10168300120CBFED9002120CBFFB9002120CBFAF05
:101693009102120CBF939202120CBF999302120C87
:1016A300BF239402120CBF2D9402120CBF9A940212
:1016B300120CBFB19402120CBFE39402120CBF1CB4
:1016C3009502120CBF469502120CBFA79502120C8D
:1016D300BFC79502120CBFE59502120CBF2B9602F1
:1016E300120CBF519702120CBF9E9702120CBFCD72
:1016F3009702120CBF439802120CBF6B9802120C94
:10170300BFA49802120CBFB29802120CBF0A99022E
:10171300120CBF599902120CBF989902120CBFC840
:101723009902120CBFF49902120CBFFF9902120C1A
:10173300BF1D9A02120CBFDF9A02120CBFE99A0274
:10174300120CBF2A9B02120CBF7F9B02120CBF9389
:101753009B02120CBFA19C02120CBFB49C02120C80
:10176300BFC99C02120CBF6B9D02120CBFEE9D02FF
:10177300120CBFAC9E02120CBFB79E02120CBFE349
:101783009F02120CBFFF9F02120CBF51A002120C4A
:10179300BF90A002120CBFA5A002120CBF07A102AA
:1017A300120CBF96A102120CBFE1A102120CBF32B0
:1017B300A402120CBFB0A402120CBF25A502120C86
:1017C300BF47A702120CBF5FA702120CBF62A7029A
:1017D300120CBF6EA702120CBF82A702120CBF8AA3
:1017E300A702120CBFBDA702120CBF6DA802120CF8
:1017F300BFE3A802120CBF56A902120CBF0AAA0229
:10180300120CBFBFAA02120CBFDEAA02120CBF84C5
:10181300AB02120CBFAFAB02120CBFB2AB02120C85
:10182300BF1CAC02120CBF44AD02120CBF1CAE02B3
:10183300120CBFA7AE02120CBFC0AF02120CBF7DC9
:10184300B002120CBFB6B002120CBFE7B002120C0A
:10185300BFA5B102120CBFD5B102120CBFB0B202C8
:10186300120CBF49B302120CBFD4B302120CBF85D2
:10187300B402120CBF08B502120CBF3AB502120C27
:10188300BF7BB502120CBF6F9803120CBFD4980331
:10189300120CBF119903120CBF609903120CBF768F
:1018A3009B03120CBF599D03120CBFC3A003120C60
:1018B300BFFEA003120CBF20A103120CBF83A10320
:1018C300120CBFB7A103120CBFDAA103120CBF079E
:1018D300A203120CBF63A203120CBF62F302120C29
:1018E300BFF8DD02120CBF16F402120CBF82F40221
:1018F300120CBFF5F502120CBF11F602120CBF5603
:10190300F602120CBFE4F602120CBF3DF702120CF2
:10191300BF6AF802120CBF7CF902120CBFD9F9029C
:10192300120CBF45FA02120CBFA6FA02120CBFE753
:10193300FA02120CBF94FB02120CBFA6FC02120C9B
:10194300BFD1FC02120CBF1CFD02120CBF4A2900BE
:10195300120CBFF5FD02120CBFB0FE02120CBF0643
:10196300AC03120CBF65AD03120CBF8AAF03120C9C
:10197300BF47B003120CBFABB203120CBF0EFB0385
:10198300120CBFF5FB03120CBFE8BA03120CBF34F1
:10199300BB03120CBFA2BB03120CBFC3BB03120CCD
:1019A300BF73BC03120CBF7CBC03120CBFCFBC03C0
:1019B300120CBFF8BC03120CBF5FBD03120CBFF0C7
:1019C300BD03120CBF32BE03120CBF7CBE03120C4C
:1019D300BFDBBE03120CBF07BF03120CBF98BF03CC
:1019E300120CBFD7BF03120CBF16C003120CBF4BA0
:1019F300C003120CBF5DC003120CBF6FC003120CF7
:101A0300BF8EC003120CBF97C003120CBF4DC1039E
:101A1300120CBF8DC103120CBF19DA03120CBFECF9
:101A2300DA03120CBF06DB03120CBF17DB03120C25
:101A3300BF2CDD03120CBF4BDD03120CBFA1FF0350
:101A4300120CBFABFD01120CBFE1FD01120CBF2A4A
:101A5300FE01120CBF7AFF01120CBF1B6C00120CAB
:101A6300BF5A6D00120CBF966D00120CBF556F006C
:101A7300120CBF7E6F00120CBF117200120CBF5507
:101A83007200120CBFDE7300120CBF767400120CCE
:101A9300BFDE7400120CBF7F7500120CBFC175004E
:101AA300120CBF017600120CBF8C7700120CBFFC26
:101AB3007800120CBF217B00120CBF4F7B00120C6D
:101AC300BF767B00120CBF7F7B00120CBF067C002D
:101AD300120CBF247F00120CBFEB8304120CBF0156
:101AE3008404120CBF62E903120CBF75E903120CE4
:101AF300BF12EA03120CBF4DEA03120CBF68EA03DC
:101B0300120CBF8DEA03120CBFD2EA03120CBF03FF
:101B1300EB03120CBF34EB03120CBFBAEC03120C31
:101B2300BF028104120CBF388104120CBF5481041C
:101B3300120CBF968104120CBFA68104120CBFB015
:101B43008104120CBF008003120CBF528003120CDD
:101B5300BF3B8103120CBFD48103120CBF1E82034F
:101B6300120CBF7B8203120CBFAD8203120CBFABFE
:101B73008303120CBFEF8303120CBF0A8403120CFE
:101B8300BF598403120CBF6F8403120CBF7C840300
:101B9300120CBFB08403120CBFC98403120CBF9391
:101BA3008503120CBFED8503120CBF3B8603120C99
:101BB300BF5D8603120CBFD48803120CBF028903D6
:101BC300120CBF928903120CBF078A03120CBF0CBD
:101BD3008A03120CBF488A03120CBF9E8A03120C9D
:101BE300BF628B03120CBF878B03120CBF918B0355
:101BF300120CBF948B03120CBF1D8C03120CBF3845
:101C03008C03120CBF4B8C03120CBF868C03120C7B
:101C1300BF898C03120CBF948C03120CBFD08C03AE
:101C2300120CBFA57F00120CBFBD7F00120CBFA416
:101C3300B303120CBFF3B303120CBF95B503120C1D
:101C4300BF51B703120CBF99B703120CBF81B8037E
:101C5300120CBFB2B903120CBFD4B903120CBF30BC
:101C6300BA03120CBFB4BA03120CBFE1E301120CA6
:101C7300BF02E401120CBF7FE401120CBF04E501B3
:101C8300120CBF80E501120CBFE9E501120CBF3550
:101C9300E601120CBFB4E601120CBF46E701120CB9
:101CA300BFD2E701120CBF14E801120CBF5DEC01B7
:101CB300120CBFDDED01120CBFB3EE01120CBFE23B
:101CC300EE01120CBFCDF001120CBF4DF301120C4B
:101CD300BF06F401120CBF23F501120CBF7AF80101
:101CE300120CBF8AF801120CBFEBF901120CBF777B
:101CF300FA01120CBFA0FB01120CBF91FC01120CE4
:101D0300BF13FD01120CBFE7E402120CBFA1E502F1
:101D1300120CBF13E602120CBFAFE602120CBF1F78
:101D2300E702120CBFD8E902120CBFAFEA02120C91
:101D3300BF1CEB02120CBF99EC02120CBF63ED0245
:101D4300120CBFD3ED02120CBF9CEF02120CBFAFFB
:101D5300F002120CBF48F102120CBF0EF202120C79
:101D6300BF08C703120CBF5CC703120CBFBFC70376
:101D7300120CBF0AC803120CBF6CC803120CBFD8E5
:101D8300C803120CBF8BC903120CBFCCC903120CBE
:101D9300BFE2C903120CBF4BCA03120CBF89CA03AB
:101DA300120CBFB0CA03120CBFF8CA03120CBF4710
:101DB300F603120CBF78F603120CBF32F703120CB2
:101DC300BF98F703120CBFBBF403120CBFC083040C
:101DD300120CBFD18304120CBF21F803120CBF2FC6
:101DE300F803120CBFECFF03120CBF818204120C28
:101DF300BF918204120CBFA68204120CBFEE8204B0
:101E0300120CBF008004120CBF858004120CBFE9C2
:101E13008004120CBFF27F00120CBF58E203120CB5
:101E2300BF66E203120CBFE0E203120CBFC4E3037C
:101E3300120CBF7DE503120CBFDDFF01120CBFB610
:101E4300C103120CBF22C203120CBFE1C203120C66
:101E5300BFEBC303120CBF44C503120CBF9FC503E2
:101E6300120CBFF4C503120CBFFDC503120CBF0F48
:101E7300C603120CBF79C603120CBF8DC603120C26
:101E8300BF97C603120CBFABC603120CBFE1C60358
:101E9300120CBFAED003120CBF03D103120CBFFF51
:101EA300D203120CBF31D303120CBF53D303120C52
:101EB300BF6CD303120CBF85D303120CBF8FD403A3
:101EC300120CBF2AD503120CBFADF903120CBFD1FC
:101ED300F903120CBFEAF903120CBF1DFA03120C2B
:101EE300BF4EFA03120CBF7CFA03120CBFDEFA03D7
:101EF300120CBFEDFA03120CBFF7FA03120CBF0466
:101F0300FB03120CBFD1EC03120CBFF7EC03120C52
:101F1300BF34ED03120CBF43ED03120CBF62ED039C
:101F2300120CBFCAED03120CBFD3ED03120CBF3268
:101F3300EE03120CBF56EE03120CBF15EF03120C87
:101F4300BF22EF03120CBF33EF03120CBF848304D1
:101F5300120CBFA18304120CBFA1D503120CBFF94D
:101F6300D603120CBF06D703120CBF19D703120CEA
:101F7300BF38D703120CBF4ED703120CBF62D7036F
:101F8300120CBFD7D703120CBF3CD803120CBFEC03
:101F9300D803120CBFC1D903120CBFD1D903120C41
:101FA300BFE0D903120CBF2EFF02120CBF52FF0277
:101FB300120CBF7AFF02120CBFA2FF02120CBFE386
:101FC300F103120CBF0AF203120CBF2BF203120C23
:101FD300BF90F203120CBF61EF03120CBF7AEF0341
:101FE300120CBF86EF03120CBF9AEF03120CBFB89B
:101FF300EF03120CBFC2EF03120CBFCCEF03120CA2
:10200300BFDFEF03120CBF41F003120CBF7AF003E2
:10201300120CBFA9F003120CBFF7F003120CBF465A
:10202300F103120CBF61F103120CBF6BF103120C2D
:10203300BF92F103120CBFD8F103120CBF0282044A
:10204300120CBF1E8204120CBF0B8404120CBFAF10
:10205300A203120CBFD9A203120CBFF5A203120CE8
:10206300BF08A303120CBF1EA303120CBF7BA30361
:10207300120CBFAEA303120CBFEFA703120CBF15C4
:10208300A903120CBF48A903120CBF94A903120C95
:10209300BFD6AA03120CBFFEAA03120CBF13AB03D5
:1020A300120CBF23AB03120CBF67AB03120CBFC8E8
:1020B300AB03120CBFD8AB03120CBF4FFC03120CC3
:1020C300BF6AFC03120CBF93FC03120CBFADFC03ED
:1020D300120CBFD2FC03120CBFF1FC03120CBF099C
:1020E300FD03120CBF37FD03120CBF51FD03120C8D
:1020F300BF408304120CBFE2E503120CBFE9E50302
:10210300120CBFF5E603120CBF25E703120CBF4BFD
:10211300E703120CBF6EE703120CBF90E703120C28
:10212300BFCAE703120CBF30E803120CBF69E80310
:10213300120CBFB5E803120CBFE2E803120CBF0296
:10214300E903120CBF098D03120CBF4A8D03120C55
:10215300BFF98D03120CBF698F03120CBFA28F034B
:10216300120CBF95FE03120CBFADFE03120CBF9BF6
:10217300FF03120CBF9EFF03120CBF82FD03120C60
:10218300BFF4FD03120CBF32FE03120CBF73FE0338
:10219300120CBFA4DE03120CBFC3DE03120CBF126A
:1021A300DF03120CBF2EDF03120CBF5FDF03120C21
:1021B300BF6CDF03120CBF79DF03120CBF65E003B2
:1021C300120CBFA3E003120CBFB3E103120CBFBE9A
:1021D300E103120CBFD0E103120CBFD9E103120CCF
:1021E300BFE3E103120CBFF1CB03120CBF36D003E4
:1021F300120CBF44D003120CBFC7FF02120CBF6AFC
:10220300DD02120CBF5DDD02120CBF57DA02120CA5
:10221300BFB9D702120CBF82D602120CBFD6D502A9
:10222300120CBF1CD402120CBFCCD102120CBF5330
:10223300D102120CBFF82800120CBFE62800120CC2
:10224300BFFAD002120CBF8AD002120CBF92280030
:10225300120CBFC0E402120CBF61D002120CBF41CA
:10226300CE02120CBF0DCE02120CBFDACD02120C3D
:10227300BFBECD02120CBFD7CC02120CBF8FCC0253
:10228300120CBFDACA02120CBF5ACA02120CBF5791
:10229300CA02120CBF58C902120CBF26C902120C83
:1022A300BF63C802120CBF8EC602120CBF1FC60248
:1022B300120CBFF1C502120CBFEEC502120CBFA275
:1022C300E402120CBF60E302120CBFBDE202120C67
:1022D300BF70E102120CBF1BDF02120CBFDBC50291
:1022E300120CBF86C502120CBF75C502120CBFD4F7
:1022F300DE02120CBF67C402120CBF31C402120CFF
:10230300BFDFC302120CBF80C302120CBFA0DE02E8
:10231300120CBF63FD02120CBF4FC302120CBF1796
:10232300C002120CBFD7BF02120CBFCBBF02120CEC
:10233300BF2BBF02120CBF6BBE02120CBFEDBB0260
:10234300120CBF7EB902120CBF3CB902120CBF10B3
:10235300B802120CBFC5B702120CBF04B702120CAD
:10236300BFD7B602120CBF1AB602120CBFEAB502EF
:10237300120CBF40DE02120CBFB0B502120CBFE05C
:10238300F30200000080FBE4738F0001002A08873A
:102393000001002908240002009912250002009B75
:1023A30012260002009D12270002009F122800013E
:1023B30000A11229000100A21284000400A31286C6
:1023C300000100A7122A000100A8122B000100A996
:1023D300122C000100AC122D00080014082E00017D
:1023E30000AD122F000100AE1230000100AF123118
:1023F300000100B012320001001C08330001001D6F
:102403000834000100B112360001001E0838000133
:1024130000B21239000100AB1283000200BC126348
:10242300000100280864000100110865000100AAEA
:10243300126D000100BB126E00020012084300017E
:1024430000B31244000200B41245000100B6124664
:10245300000200B71247000800200848000100B935
:10246300124B000100BA1204000100BE12A10001C8
:1024730000C11237000100C01288000100BF123CE6
:102483000001001F080000000000000001363601B3
:102493000100010201000103010001040106060518
:1024A300020000070100340801000F090401010DB7
:1024B3000100FF0E08000017020000190100FF1AB7
:1024C3000100011B0100FE1C0100081D0200001F8A
:1024D30001000120010001210200002301000F245B
:1024E3000200002601000127010008280200FF2A3C
:1024F3000100072B0102402C0100002D0100012ED9
:102503000100012F0100FF30010B1C310800003ACC
:102513000100083B01000F2F01000003027102308C
:102523000160021102700201020202020280021023
:102533000261023A004100630273027202620243C3
:102543000200021302380000020002040212020019
:102553000200020002000204020402370037003CBA
:102563000244020002390000020002650200023543
:10257300028102000205028202830200020300714B
:10258300003001600011007000310220035004800C
:102593000010006100000014006300730072006209
:1025A30000430000001300060000000000040012B6
:1025B30000000000000000000004000400370037A2
:1025C300003C024400000000000000000065000021
:1025D30000350081000000050000008300000003B7
:1025E300047104020460041104700402040204016F
:1025F30004020410046104000414046304730472E9
:1026030004620443040004130406040004000404E5
:1026130004120400040004000400045104640000D4
:1026230004000400044404000400040004000465DE
:1026330004000435048104640005040004830400D9
:1026430004010371030103010301030103010322D5
:10265300030203010310030003000300030003004C
:1026630003000300034203000324030603000300E3
:102673000304031203250323032503230304030491
:1026830003000300030003440300030003230300C8
:1026930003650321003503810300030503000300E1
:1026A3000300030101710101010101110101013164
:1026B30001010101018001100161013B001400636C
:1026C3000173017201620143010001130106013D1F
:1026D30001350004011201000100010001000104A1
:1026E300010401330133013C01440132013600008E
:1026F300010001650100013500810100010501822E
:10270300018301000136000100060000000F0000F4
:10271300000000000000000000000003FFFF0000B5
:102723000403FFFF0000FFFF0FF4010005C40403CF
:1027330020000100130B0000000000000000030153
:102743000F00001F1D1300BF1C01001F1D02008985
:102753001C03008F1C0400951C05009B1C0600A78E
:102763001CFFFF000001C91206F91208F3120B0542
:102773001310451202CF1205E71207D5120CAB1244
:102783000DBD12FF0000DD160D17E316E91607173E
:10279300FB16F516131719171F172B17EF16D71656
:1027A300D11600160F00000B150B020002220F3288
:1027B30000000601030507090B0D0F0002040608BC
:1027C3000A0C0DC717D917DF17A716E517A116AD02
:1027D30016140AE5D5C5B5A5A59585857565211892
:1027E3003F184518271833182D18E115DB15171650
:1027F3001D161116C91500011916181616152303EF
:102803000000383C3E363B3B352B432C0003494804
:10281300424D1817250502303016181920231A1CAB
:102823001E30303017181921301B1D1F300C0E02BB
:102833000B040B0A0708000F011725173918311766
:1028430037171518EB17F117FD17F71702040201D5
:102853000101010902ED15F315E715231600BE0466
:102863000AF9150B16FA06D4270E0004007F00E8B8
:10287300030C000000000028000908100C0A0308DC
:102883000900040003FF1E1E010C04051005087453
:10289300F61207FE74FF120D9E851882851983E4D4
:1028A300F08582088583097808120CDC75080175A8
:1028B30009007808120CDC1228C77404120D247462
:1028C30001023C0F1228CE121ACD22EA75F00BA496
:1028D300FAA8F075F00BEBA428FBEAFCEBFD7A23D6
:1028E3007B0022C082C0838A828B83E0D2E7F0120E
:1028F3001BED023B3BC082C0837900122E09125BA1
:10290300A7C082C08390033412492DD083D082C3E1
:10291300E09CA3E09D500C12627BFAA3E0122929EC
:10292300600109023B3BFBEA75F00BA4FAA8F075C2
:10293300F00BEBA428FB900336E02AF8A3E03B88D6
:1029430082F583E0540F2274F71207FE8908122ED2
:1029530009122EAFACF075F00BE9A42CF9900336F5
:10296300E028FEA3E039FF74016508600674026580
:102973000870208A828B83122E9B123C0974026595
:1029830008701B122D5A122EE270138E828F83E46D
:10299300F0800BEA2403FCEB122E7D122E89EEFA53
:1029A300EFFB12223B023B7374F41207FE126BA27D
:1029B30079008E828F83E06076890A890B8065E5D2
:1029C3000A75F00BA4FAA8F075F00BE50B12293683
:1029D3007046E50A75F00BA4F8AAF075F00BE50B49
:1029E300122EC18E828F83E0850882850983122F80
:1029F300A3850882850983A3123C09EE2403FCEF17
:102A0300122E86123B42125621AA08AB0912223B10
:102A13007901900334125036E50A2401F50AE50BD7
:102A23003400F50B122D62E50A9AE50B9B409002E8
:102A33003DB374F51207FEEAFEEBFF740B120FBCF5
:102A4300123B47750A01EC4D602BEC126BBEED1285
:102A53005BA7123C01790112194DE5084509606F26
:102A6300850882850983A3126BAC7902AA08AB0996
:102A730012194D805AE5084509602B125BAB1242CF
:102A830075123B43122ECC700CEEFAEFFB120FCFF4
:102A9300E9F50A80CBEE2403FA122E047031790390
:102AA300EEFAEFFB80CA8E828F83A3E064FE70038D
:102AB300A3E0F4700BEE24030A0A0A122E04700C2E
:102AC300EEFAEFFB120FCFE9F50A8003750A00A9AE
:102AD3000A7F03020ABB74F71207FE900334123B0A
:102AE30083EA4B602FEA75F00BA4FAA8F075F00B9C
:102AF300EBA428FBEAFEEBFF121A4F900336123BBE
:102B030083900336124E7B6012EEFCEFFD790012C8
:102B130019958007900336E4F0A3F0023B7374F633
:102B23001207FEE4F508F5097808120CDC9003346B
:102B330012492DEC75F00BA4FCA8F075F00BEDA475
:102B430028FD7A237B00121AC77402120D24E9FEB2
:102B53006003120FE7025DBA74F71207FE7E007F6F
:102B630000800AEEFAEFFB12224D123780122B7807
:102B730040F1023B739003341245E5C3EE98EF999D
:102B830022C082C083EC4D600512218D80097C0830
:102B93007D007900121995023B3B74F61207FE790A
:102BA30000EA4B601878008808125EEEEB12627739
:102BB30060047901780808E8C3940840EA023C12EB
:102BC30074F71207FE74F3120D9EECFEEDFF8518E9
:102BD30082851983E4F004120FBCEAF0A3EB1253CD
:102BE300A77403120FBCAC82AD83EEFAEFFB120F96
:102BF300EDEEFAEFFB120FF3023B6E74F71207FED2
:102C030074F3120D9EECFEEDFF851882851983E4A3
:102C1300F0EAFCEBFD7403120FBC122F9C7401123B
:102C23000FBC123BFD8E828F83123C0974FE6870C9
:102C33000374FF696004790180027900023B6E74BA
:102C4300F71207FEEAFEEBFF122CA07014122CAB56
:102C53008E828F83E0F4F88A828B83E058F012220D
:102C63003BA908023B7374F71207FEEAFEEBFF75FC
:102C730008008E828F83E06022122CA0701D122C1C
:102C8300AB8A828B83E08F838E82F8E058700CE0EE
:102C9300F88A828B83E048F012223B80C4122235EB
:102CA300E9F5087401650822126BB7122EB3122DD1
:102CB300F5FAA3E039FB2274F41207FE8A088B09A4
:102CC3007C007D00122D5A122E89122E1A126BA926
:102CD3007900850882850983A3E064FE7003A3E07D
:102CE300F460717E007F008062EEFAEF12292960A2
:102CF30057EEFAEFFBEA75F00BA4FAA8F075F00BA8
:102D0300EBA428FB900336E02AF50AA3E03BF50B7E
:102D1300850882850983A31252F5850A82850B8370
:102D2300A3E06A7003A3E06B701EE50A2403FAE5CF
:102D33000B122E05700AE50A2403FCE50B122E86FE
:102D4300122E0E7901125BBD123780122D62EE9A9C
:102D5300EF9B4095023DB3EA24030A0A0AEB229053
:102D63000334125794C32274F31207FE8A088B09A3
:102D73008A828B83A3126BAC122E09126BA9750C7A
:102D830000122D5A122E0570547E007F00804912C6
:102D93002DE7FAA3E0398A82F583E0540F603612F7
:102DA3002DE7F50AA3E039F50BE50A2403FCE50B4F
:102DB300122E903400FB122187E964017017850AF3
:102DC30082850B83A3125855A3123C09122E0E754C
:102DD3000C01125BBD123780122B7840B2A90C7F15
:102DE30005020ABBEEF8EFF9E875F00BA4F8122D13
:102DF300F522AAF075F00BE9A42AF9900336E0282E
:102E030022EF122EDC22126BBDEB22122E1A125B62
:102E1300B8EEF0A3EFF022E508126BBEE5092274C9
:102E2300F51207FEEAFEEBFF8E828F83A3126BACD3
:102E33007C007D00EE24030A0A0AEF122E89EEFAC3
:102E4300EFFB122235E9F50A7401650A7029126B4A
:102E5300B7122EAFAAF075F00BE9122EC1850882C6
:102E6300F583122E9B122ECC700DE5082403FCE58E
:102E730009122E7D122E89022AD23400FDEE24037C
:102E8300FAEF22122E903400FB120FED223400FDD4
:102E9300E5082403FAE50922A3122EA022122EA488
:102EA30022E0F8A3E0F98E828F83A322122EB322AD
:102EB3003400F5831245E9E875F00BA4F822122DCE
:102EC300FBF508A3E039F50922E8F0A3E9F0E508EA
:102ED3002403FAE509122EDC22122EE264012234C5
:102EE30000FB120FF3E92274F31207FE74E6120DCE
:102EF3009E126BA2750C01750800750900750A0016
:102F0300750B00851882851983E4F0EE2403FCEF2A
:102F13003400FD7403120FBC122F9CE9640170236B
:102F2300740B120FBC123C017401120FBC1252F944
:102F33007003A3E06960518518828519838582082F
:102F4300858309740D120FBCE4122FA3740E120FA4
:102F5300BC123C09740D120FBCAA82AB8312101170
:102F6300E96401700B740D120FBC85820A85830B13
:102F7300780A120CDCAC08AD09EEFAEFFB120FD5A0
:102F83007402120D24E9F50CEEFAEFFB12100BA9F3
:102F93000C741A120D24022DE212326F1210172232
:102FA300123B7E1245E522C082C0837800790080FF
:102FB3000312309A122D62E89AE99B5029E8FAE944
:102FC300FBEA75F00BA4FAACF075F00BEBA42CFB49
:102FD300900336E02AFCA3E03B8C82F583E0540F98
:102FE30070CF790080027901023B3BC082C083909D
:102FF30009D612463BEC75F012A4FCA8F075F0124A
:10300300EDA428FD79FF7A087B0D121995023B3B4D
:1030130074F71207FEE9FEEAFF7A007B0078007975
:10302300008028E8FCE9FDEC75F012A4FC85F008AB
:1030330075F012EDA425081234AFC39E400AE0FCDC
:10304300EFC39C400312365512309A1234A340D377
:10305300023B73C082C08378007900800312309AE8
:1030630012308E501F1234B3F470F2E875F012A4CC
:10307300F8AAF075F012E9A42AF9740828FA740D75
:1030830039FB80047A007B00023B3B9009D6123562
:10309300EBC3E89AE99B22E8240108E93400F9220A
:1030A30074F01207FE74F3120D9E8A0A8B0B8C0CBC
:1030B3008D0D8908EC450D6016AA0CAB0D12106539
:1030C3008A0E8B0FAE0EAF0FEE4F6003023161120B
:1030D300103B8A0E8B0FA80EA90FE8FEE9FFE84903
:1030E300607C9028781231C36022740365086006FF
:1030F3007404650870167A047903121035902878E1
:103103001231DA40077A007B000231C09028761230
:1031130031C3601B74016508600674026508700F93
:103123007A0279011210359028761231DA50D68559
:1031330018828519837401F0120FBC125621AC0C4E
:10314300AD0D7403120FBC123268740B120FBC1254
:103153003B4F123FE9E41256091215218004EE4F4A
:10316300604A780074FF2508C39404500278048EE3
:10317300828F831256218E828F83A3A3A3A3E50894
:10318300F0E88E828F83A3A3A3A3A312562912066A
:103193001E1236028E828F83A3A3A3A3A3A3A3F03D
:1031A3001235F9120F91125BA1120F851231C8402B
:1031B30005901264E4F01213FBEEFAEFFB0245EF05
:1031C30012574349227A0479001210359009D61216
:1031D300625DEA98EB99221231F37583097582D601
:1031E300E493C398F8A3E49399F9C3EA98EB99227B
:1031F300E493F8740193F92274F21207FE74F31244
:103203000D9E8A088B09ECFEEDFF750A00EEFAEFBE
:10321300FB1210658A0C8B0DA80CA90DE849603EC2
:1032230088828983E065087004A3E06509602F88BC
:10323300828983A3A3A3A3E0C394055021125A4F09
:103243008518828519837401F0120FBC125A53EE4C
:10325300FCEFFD7403120FBC123268750A01A90A50
:10326300740D0250ED12326F12102322AA82AB8327
:10327300120FED851882851983AA82AB832274F617
:103283001207FE1232BD600FA3A3A3A3E014C394DD
:10329300045004790180027900023C1274F612078B
:1032A300FE1232BD600FA3A3A3A3E014C394025084
:1032B30004790180027900023C1212105F8A828B2A
:1032C30083E58245832274F61207FE1232BD600B3A
:1032D300A3A3A3A3E07004790180027900023C1246
:1032E300C082C083EAFCEBFD7A007B00023B38C05E
:1032F30082C0837C007D00023B3874F41207FE74A5
:10330300F3120D9EEAFEEBFF8C0A8D0BC3EC94F8CF
:10331300ED94FF4007EE4F70030233B67508007556
:103323000900802E8518828519837401F01237A84D
:10333300120FBC1237B660137403120FBCAC82AD0C
:1033430083EEFAEFFB122187E97049E508240112A5
:10335300354F9009D6E412574BE50898E509995083
:1033630052E50875F012A4F8AAF075F012E509A465
:103373002AF912629060D4EE4F70A974FF650A7047
:103383000474FF650B60C4123798650A7004A3E0E8
:10339300650B70B7E50875F012A4F508A8F075F091
:1033A30012E509A428F50974082508FA740D3509EE
:1033B300FB80047A007B00023DAE74F41207FE74B6
:1033C300F3120D9E7508001210658A0A8B0BAE0A64
:1033D300AF0BEE4F602A8518828519837401123B67
:1033E30078F8A3E0F9740B120FBC123C8C12100591
:1033F3007C127D0079FFEEFAEFFB12199575080137
:103403001231C850099012647401F01213FBA90819
:10341300023DAE74F71207FEE9FE74FE6A70037490
:10342300FF6B780079007005805212309A1234A332
:10343300504AE8FCE9FDEC75F012A4FCAFF075F01E
:1034430012EDA42F1234AFF460E0E8FCE9FDEC7553
:10345300F012A4FC75F012EDA42FFD74082CF58274
:10346300740D3DF583E06A7003A3E06B70BC8009C3
:103473001234B314C39404401712309A12308E508E
:1034830018EE70EC1234B364016005E0640370E974
:10349300123789FAA3E0FB80047AFE7BFF023B73B9
:1034A3009009D612463FC3E89CE99D2212368A2230
:1034B300E8FAE9FBEA75F012A4FAACF075F012EB46
:1034C300A42CFB740C2AF582740D3BF583E02212C5
:1034D3001077023B3BC082C083790180F274F01203
:1034E30007FE8A0A8B0B7A0479011210358A0C8B3A
:1034F3000DEA450D603EEAC333FAEB33FB121A4F74
:103503008A088B09AE08AF09EE4F60237AFE7BFF72
:1035130012107D74FE6A700374FF6B601B85088252
:10352300850983123B83E508240212354F80E17538
:103533000C0080047E007F00850A82850B83E50CE6
:10354300F0EEFAEFFB0245F4E5082407F508E50978
:103553003400F509229009D612463FC3EA9CEB9D3D
:103563002274F61207FEE4F508F5097808120CDC5C
:103573009009D6E493F508740193F5097403780868
:10358300120EC912359B121AC77402120D24E9FEDA
:10359300600312108F025DBAE5082402FCE50934CA
:1035A30000FD7A227B002274F61207FE74FE120DD0
:1035B3009E851882851983E4F0A3123BF585820862
:1035C3008583097808120CDC7508027509007808F0
:1035D300120CDC7C007D007A227B00121ACD74046D
:1035E300120D247402023C0FE493FA740193FB223C
:1035F300121989740322125BB2E4F090826722E805
:103603008E828F83A3A3A3A3A3A3A3A3123624749D
:1036130001123624A3F0EE2410125BB5E4F0A3F0FC
:1036230022123FF5A3A3A322C082C0837A007B00AA
:103633008004191236551235585010123674C3943B
:103643000550F0E970EC12365E80047A007B0002CC
:103653003B3BEA24010AEB3400FB22EA75F012A497
:10366300FA75F012EBA428FB74082AFA740D3BFBDD
:1036730022EAFCEBFDEC75F012A4FCA8F075F01245
:10368300EDA42812368A22FD740C2CF582740D3DAC
:10369300F583E02274F71207FE74F3120D9E7E0089
:1036A3007F0002373CE50875F017A4F8A9F012640F
:1036B300F1FAA3E0FBEEF8EFF9E875F012A4F8AC29
:1036C300F075F012E9A42C1237976A7003A3E06B2C
:1036D300603FE50875F017A4F8AAF0EA1264F0F861
:1036E300A3E0F97401120FBCE0687003A3E0696002
:1036F30020E50875F017A4F8EAF9748428FC740E21
:1037030039FD7403120FBCAA82AB83122187E960CF
:1037130014E50875F017A4F8A9F0748228FA740E5A
:1037230039FB12152D050890287EE493F8E508C3AC
:103733009850030236A81237809009D61268375082
:1037430039EEF8EFF9123789F47003A3E0F460E679
:103753008518828519837401F0EEF8EFF9E875F0A6
:1037630012A4F875F012E9A42AF91237A8120FBCB3
:103773001237B660C175080080AD023B6EEE2401BE
:103783000EEF3400FF22E875F012A4F8AAF075F0EA
:1037930012E9A42AF912379C22740828F582740DC1
:1037A30039F583E022740A28F582740D391245E352
:1037B300740B22E8F0A3E9123C9412101DE922C015
:1037C30082C08390033D74E1F0A37412F090033F31
:1037D30074DBF0A37412F090034374FBF0A3741032
:1037E300F0023B3B74F71207FEEAFEEBFF90037710
:1037F300E06408601BE0640460168E828F83E054EB
:103803000364017048123B421240EAE06406703DD3
:103813008E828F83A3A3E064FE7003A3E0F4602D84
:103823008E828F83A3A3123BFD900368E06870032D
:10383300A3E069700BEE2415F582EF12627760083E
:1038430012138FE9F508800812139580F67508C2E4
:10385300EEFAEFFB121A55022C6474F41207FE8A77
:10386300088B098A828B83E0F8A3E0FAE82AFAE45A
:103873003400FB121A4F8A0A8B0BAE0AAF0BEE4FC2
:103883006063850882850983E0FC7D007900121955
:10389300958E828F83A3A3126BAC1213D18E828F6A
:1038A30083A3A3A3A3123B83850882850983E0F83E
:1038B300EE28F8EF3400123C05850882850983A3BE
:1038C300E0C0E0EE240D125BA4D0E0F01213E3EEAF
:1038D300240E125BA4E9125256E0C0E0EE2411124A
:1038E3005BA4D0E0F0EEFAEFFB023DB374F61207EF
:1038F300FE74EB120D9EEAFEEBFF124E786003029C
:1039030039937A077B00121A4F900339123B8312C3
:103913004E7860788E828F83120F9190033A124013
:10392300ED120F85126A70C0E012399FD0E0F0EEFD
:103933002405FAEF3400FB8A088B098A82F583E0B9
:10394300C0E012399AD0E0123DAAE0C0E012399AE1
:10395300A3D0E0123BEF120F9185188285198312D1
:103963000F8588828983E0C0E07405120FBCD0E024
:10397300F0850882850983E0C0E07404120FBCD08F
:10398300E0F07407120FBC123AD58006791080025A
:1039930079017415023C0F12399FA322900339E079
:1039A300FAA3E0F5838A82A3A3A3A322C082C083E0
:1039B300124E78600D900339125782900339E4F068
:1039C300A3F01212FF1214CD023B3B74F01207FE58
:1039D30074EB120D9EECFEEDFF89087425120FBCEB
:1039E300780C120F5A7429120FBCE0F9742A120FC3
:1039F300BCE0FC742B120FBCE0FD740F69700574FE
:103A03000F6C60129012B0E06402700579C1023A43
:103A1300D0E9C39C40F6900378780C120F2DE5088B
:103A230090037EF0E990037CF0ECA3F0ED90037F2C
:103A3300F074FF6A700374FF6B701D9012BCE0F4A6
:103A43007003A3E0F470051219A1800C9012BC124C
:103A53003B58E8F0A3E98007900375EAF0A3EBF085
:103A6300EE4F6017EEFAEFFB12158DE96401700B50
:103A7300EEFCEFFD7A897B0312218D900368E4F05D
:103A8300A3F090036BF0A3F0900388F09012B0E0E2
:103A93006402700890037C740FF0A3F090037774B2
:103AA30005F014120FBCE4F0900378120F918518FF
:103AB30082851983120F8590037EE0C0E07405129E
:103AC3000FBCD0E0F07407120FBC123AD574150284
:103AD30045F1E4123C941221B722C082C0839003C3
:103AE30038E07003121CB91210CB804CC082C08323
:103AF300900338E09012637004E4F0802D7401F0B9
:103B0300900338E0F460237C41E0C394415002E029
:103B1300FCECF8E0C398F0EC75F0E8A4CCA8F075E1
:103B2300F003A428FD7A801246477A637B12794119
:103B33001221A5800312106BD083D082020CBCEE3D
:103B4300125BB322E0F508A3E0F50922123B5322EE
:103B5300122EA4A3221245E59003752274F71207CF
:103B6300FEEB90037FF01212ED8005740D120D240D
:103B73007F01020ABB123B7EA3E022123BEFA3228A
:103B8300EAF0A3EBF02274F71207FE74F8120D9E0D
:103B9300EAFEEBFF7900900377E064087044851830
:103BA3008285198374FDF0A374FFF01213CB7402A2
:103BB300120FBC123B837405120FBCE4123B7EE070
:103BC300C0E07404120FBCD0E0123BEAC0E07406FC
:103BD300120FBCD0E0F07407120FBCE4123C901239
:103BE30014197408023B70123BEFE022F08E828FAF
:103BF3008322F0851882851983221245E522E0F895
:103C0300A3E0F9125BB2E8F0A3E9F022120D247FDE
:103C130002020ABBC082C083900349748BF0A37471
:103C230011F09003EF7473F0A37414F090034D74C8
:103C3300C1F0A37411F090034F748BF0A37411F0CF
:103C430090035174C7F0A37411F0023B3B74F41258
:103C530007FE74F9120D9E8A088B098C0A8D0B8559
:103C630018828519837808120F2D7404120FBCE98A
:103C7300F07405120FBCE4F07406120FBCE4123C9E
:103C8300901210B37407023DB0E8F0A3E9123C941C
:103C930022123BF5AA82AB832274F41207FE8A0830
:103CA3008B098A828B83125BC0EE4F7003023DA89F
:103CB300900312124E7B60158A828B83A3A3E0F9D3
:103CC300EEFAEFFB9003131240ED12238A8E828FDC
:103CD30083A3A3A3A3A3A3A3A3A3E0640270748EEB
:103CE300828F83A3A3A3A3A3A3E054027003023D83
:103CF3007A850882850983A3A3E064E960798E82CB
:103D03008F83A3A3A3A3A3A3A3A3A3A3E07014904C
:103D130012B3E0048E828F83A3A3A3A3A3A3A3A3BD
:103D2300A3A3F08E828F83A3A3A3A3A3A3A3A3A37D
:103D3300A3E014123DAAA3A3A37404F09012B41237
:103D430055FBE8F0A3E91266D48B0BEA450B70032D
:103D53001260B28E828F83A3A3A3A3A3A3A3A3A35F
:103D6300E0640260128E828F83A3A3A3A3A3A3A301
:103D7300A3A3E06406702E8E828F83A3A3A3A3A3C1
:103D8300A3E0A2E0501F850882850983A3A3E0F97D
:103D9300EEFAEFFB12226B8E828F83A3A3A3A3A35E
:103DA300A3E054FEF08009123FF122740D120D249A
:103DB3007F04020ABB74EC1207FE74DD120D9EEA47
:103DC300FEEBFF8C088D097437120FBC780C120FB1
:103DD3005A750A007405120FBCAC82AD831222D748
:103DE3007412120FBCE070087415120FBCE060204F
:103DF3007405120FBCE0A2E6501E8E828F83A3A32C
:103E0300A3A3A3A3A3A3A31252F512144FE960081B
:103E13007903122175023FD77405120FBCE0540CCD
:103E230064047005750B018003750B00E0A2E55077
:103E330035750A01E50BA2E0402C1213D18A108BD1
:103E430011A810A911123B42E0687003A3E0696056
:103E5300157405120FBC126BB31252F1122277E9DB
:103E63006004790480AC7405120FBCE0A2E6502212
:103E73007406120FBCE0540370187405120FBCE0F3
:103E8300540C640C600CE0540C640860057510015C
:103E930080037510007405120FBCE05403F874021C
:103EA30068700C126BB31252F11222C5023FD77421
:103EB3000168703AE510A2E05003123FDF74051267
:103EC3000FBCA882A9837403120FBCE8F0A3E91204
:103ED30045D9851882851983123FE9E0C0E0740251
:103EE300120FBCD0E0123C9012235B023FD7E86074
:103EF30003023FD790035FE0640170108E828F83CB
:103F0300A3A3A3A3A3A3E07003023E657422120F2D
:103F1300BC74021245D9741A120FBC123C09E51085
:103F2300A2E050087405120FBC123FDFE50BA2E0BC
:103F3300506AEE240FF582EF126277C0E074171215
:103F43000FBCD0E0F0900314124E7B7003023FD7F6
:103F53001213D18A128B13A812A913741A120FBC4D
:103F6300E0687003A3E069706B780C120CD4780AD4
:103F7300120CE07808120CDCA910740C120FBCAC04
:103F830082AD837421120FBCAA82AB8390031412F7
:103F930040EA12238A7407120D248038780C120C1D
:103FA300D4780A120CE07808120CDC900375120B1B
:103FB30044EE2412F582EF125FA57423120FBCACFA
:103FC30082AD83740E120FBCAA82AB8312225F747C
:103FD30009120D247423120D2402669F126BB3126F
:103FE30057901222D122E8F0A3E9123FF122123FA7
:103FF300F522F08E828F83A3A3A3A3A3A32274F736
:104003001207FE121BA5023B7374F71207FE121B65
:10401300AB023B7374F71207FE121BB7023B73C06C
:1040230082C083121BB1023B3B74F71207FE121BC3
:10403300BD023B7374F71207FE7409120FBCE0F55F
:10404300087808120CE0121BC97401023B70C0828D
:10405300C083121BD5023B3BC082C083121BDB0211
:104063003B3B74F71207FE121BE1023B7374F7121A
:1040730007FEEAFEEBFF89087401650870147900F6
:10408300121203902889E493FC7900EEFAEFFB12F5
:104093001179023B7374F41207FE74F9120D9EE951
:1040A300FE8A088B098C0A8D0B7413120FBC1252F3
:1040B300F590077B124E7B6027EE85188285198366
:1040C300F07401120FBC7808120F2DEAF8EBF974A3
:1040D30005120FBC123C8C90077B1240EA12238A14
:1040E300023C87FB90034BE0F8A3E0F58388822230
:1040F300C082C083121C11023B3B74F71207FE906F
:104103001266E0F97E00800B126263540D64017045
:1041130001190E1242F75003E970ED023B7374F775
:104123001207FE901267E0F97E00800B126263545F
:104133008D64817001190E1242F75003E970ED028C
:104143003B7374F21207FE890BE975F006A4240C85
:10415300F508E5F01235538A0CE508250CFAE50954
:104163003400FB121A4F8A0C8B0DAE0CAF0DEE4FC1
:104173006027AC08AD097900121995123B42E50B93
:10418300F0EE2508F8EF3509F98E828F83A3A3A3F8
:10419300A3A3A3A3A3A3123C09EEFAEFFB0250F0DF
:1041A30074F61207FEEAFEEBFF121155901265E05A
:1041B300F8E9C39840099003451252F512115BEEDA
:1041C3002402F8EF1259059003471257BF90034793
:1041D300E004F0EEFAEFFB12116185088285098392
:1041E300E0025DBBC082C083790090034580010972
:1041F3001252F58A828B83E582458370F2023B3B40
:1042030074F71207FEEAFEEBFFEE4F60569003458C
:10421300124E7B604E888289837A007B00EE658232
:104223007003EF6583600FAA82AB83124269E58254
:104233004583602F80E7900345124275687002EF53
:10424300698E828F837008123BFD900345800312B1
:1042530066B1123C09EEFAEFFB12232BEEFAEFFBE9
:10426300121A55023B7312426D221245E988828964
:1042730083221245E5EE22C082C083900345800469
:1042830088828983124E7B600B8882898312492D31
:10429300EC4D70EC8A828B83E4F0A3F0E84960066E
:1042A300888289838003900345123B83023B3B74DE
:1042B300F71207FE90034580048A828B831242F231
:1042C3004B60257E0080010E1242F750ECEE75F034
:1042D30006A4FCADF0EA2CFCEB3DFDEC2410F582CA
:1042E300ED12434770E180047A007B00023B7312B6
:1042F3005794EA22124350EEC3982274F71207FE32
:104303007D0080010D12434CEDC3985034ED75F0E0
:1043130006A4FEA8F0E8FFEA2EFEEB3FFFEE241012
:10432300F582EF12434770DCED75F006A4FEE8FF5B
:10433300EA2EFAEB3FFBEA2411F582EB1262774C8B
:10434300F0023B73126283692212435022126BBD47
:10435300EB3400F583E0F82274F61207FE12127BA9
:104363007A007B008025EAF8EBF9E875F006A4F8FB
:10437300ACF075F006E9A42C125769126A7EA3E427
:1043830012585FF0A3126A84126BFB9028741231E7
:10439300D240D37A007B00801C8A088B097403788F
:1043A30008120EC912521DA374FEF0A30412563F45
:1043B300A3E4126BFB90287D1243FA40DC7A007B66
:1043C30000801D8A088B0974037808120EC974AA29
:1043D300125EEF741112673674FEF0A304126BFBC6
:1043E3009028831243FA40DB90288BE49390035385
:1043F300F0124404023C12E493F8C3EA98EB9400ED
:10440300227CE87D037A107B009003C2E0F9121B43
:10441300032274F01207FE74F5120D9E8A088B09AD
:10442300890A8C0BE9A2E050147508FC7509FFA2F8
:10443300E15005D2E40244D7D2E30244D71250DC60
:104443007003A3E069700579000245A4AC0A790200
:10445300AA08AB09121257E960EDE50AF50C780CCE
:10446300120CE079027CFE7DFFAA08AB09124E57BD
:10447300120D24E960030245A2E50AC2E5F50A909C
:1044830003B5E07051E50AA2E6404B7403120FBC7A
:10449300AC82AD83AA08AB09120FF9E97032124757
:1044A300788A0C8B0DA80CA90DE8FEE9FFE849609A
:1044B30025EE24020A0AEF122EE2601AEE2402FC11
:1044C300EF3400FD7403120FBCAA82AB8312218D5B
:1044D300E50AD2E5F50A900348E0F50C900368E09D
:1044E300F50EA3E0F50F780E120CDC7D017C009035
:1044F3000348E0F9AA0EAB0F12120F7402120D2437
:10450300E9F8900348E004F0E860030245A2E50AF5
:10451300A2E55004740E80027406C0E07401120F09
:10452300BCD0E0125BD18A0E8B0FAE0EAF0FEE4FF5
:1045330060691245C21245D9888289837401F07477
:1045430078550AA3126BC3E50C126BC3A3E508F0FD
:10455300E5091245B1E4F0E50AA2E5500F74031230
:104563000FBCAC82AD83E824061245A88E828F83EC
:10457300A3A374FDF0A374FFF0E50B601590288AE4
:10458300E493F8E50BC3985009EE2413125BA4E5FA
:104593000BF0EEFAEFFB1210A78006791080027978
:1045A300C7740B8049FAE93400FB12218D228882FB
:1045B3008983A3A3A3A31245BD22125938A322EED4
:1045C3002417125BB57401F01213CBEE241A125B9D
:1045D300B5EAF0A3EB22F0126BB734001245E322E5
:1045E300F5831245E922E0F8A3E0F922740D120DD8
:1045F300247F08020ABB74F61207FE7A007B1012AE
:1046030060BF60089003D47401F0802990081EE015
:1046130064019012B17006E0FC79018004E0FC793A
:10462300037A007B0012117990287212463B7A00BC
:104633007B10124649023C1212463F22E493FC745B
:104643000193FD227B009003C2E0F9121AFD22744C
:10465300EC1207FE8A088B098C0C8D0D890E7414DD
:10466300120FBC1250367416120FBCE0F510A3E003
:10467300F51112144FE960077AFF7BFF024775902B
:1046830012B0E0640260030247687900AA08AB092C
:1046930012125DA90E1212518A128B13AE12AF13AE
:1046A300EE4F70030247508E828F83A3A3A3A3A36D
:1046B300E064018E828F83A3A370691252F58E8208
:1046C3008F83A3A3A3A3A3A3E054186043902888D4
:1046D300E4938E828F83A3A3A3A3F0EA650C7003F4
:1046E300EB650D6014EA650A7003EB650B600AEA7B
:1046F30065107003EB6511701F7810120CDCAC0AA7
:10470300AD0BAA0CAB0D12154B7402120D248008CD
:104713009003671260A9A3F074FE6A700374FF6BC1
:10472300601D804EA3A3A3E0640360298E828F8360
:10473300A3A3A3A3A3E0640470057AFE02467D8EBF
:10474300828F83A3A3A3A3A3E0640270089003B49E
:10475300E0640270101247788B0BEA450B6006AADF
:1047630008AB09800DAA08AB099003491240EA126D
:10477300238A02669F900375124E5D12150F2274F1
:10478300F71207FEEAFEEBFF12104DE9700AEEFA8C
:10479300EFFB121059E96006EEFAEFFB80047AFE94
:1047A3007BFF023B7374F01207FE8A0A8B0B8C0E9D
:1047B3008D0F890975080012144FE979006003020F
:1047C300491FAA0AAB0B12125DA9091212518A0CD6
:1047D3008B0DAE0CAF0DEE4F60198E828F83A3A3AA
:1047E300A3A3A3E0640270559003B4E064027003D2
:1047F30002491DAA0AAB0B90034F1240EA12238A07
:1048030012105F8A0C8B0DA80CA90DE849700302E6
:10481300491D88828983A3A3A3A3A3E0A2E0400345
:1048230002491D750C01A2E150687901AC0AAD0B78
:10483300AA0EAB0F1211A9E9706402491D8E828F73
:1048430083A3A3A3A3A3E064037005750C028052A2
:104853008E828F83A3A3A3A3A3E064016003024911
:104863001D90037512492D8E828F83124C828A0C00
:104873008B0DA80CA90DE84960D1902881E493FA27
:1048830088828983E0C39A50C2A3E0600302491D72
:1048930080B988828983A3A3A3A3A3D2E1F0EE4FB7
:1048A300603A8E828F83A3A3A3A3A3A3E0541860CB
:1048B3002B7508018E828F83A3A3120B44750CFE04
:1048C300750DFF780C120CDC7900AC0AAD0BAA0E47
:1048D300AB0F12126F7404120D24803E900368E034
:1048E300650E7004A3E0650F7014902889E493FCAF
:1048F300A909AA0AAB0B121179750801801CA90C2E
:10490300AC0AAD0BAA0EAB0F1211A9E9700C750816
:1049130001A909AA0AAB0B121203A9080245F4E57F
:104923000C2415F582E50D125BB81256152274EAB4
:104933001207FE74F0120D9E8A0C8B0D8C088D09E4
:104943007426120FBCE0F514A3E0F515751206905A
:1049530003F5124E7B602390037512492DAA08AB11
:10496300091215398A108B11EA4511600D8A828B61
:1049730083A3E070057900024C6AE50C241DF50E53
:10498300E50D3400F50F850E82124E67F51388820C
:104993008983A3A3A3E0FA88828983A3A3A3A3E0C3
:1049A300F9EA2400FEE439FFAA08AB0912120985CB
:1049B3000E82850F83124CA5E029F50BE50AA2E5CB
:1049C300500375120E7487550A70177418550A64CC
:1049D30018600FE50C2417F582E50D126277651256
:1049E30060077901122175808C530A78C3EE94F81D
:1049F300EF94FF501D7900EEFAEFFB124C74601236
:104A030088828983A3A3A3A3A3A3E054186003020A
:104A130049787808120CDC7D00124C98120D24E9B9
:104A2300F87403687003024978E86003024AE37488
:104A330018550A7003024B98E50AD2E0F50AA2E47E
:104A43005004D2E1F50AA90A1252EE124C746053D3
:104A530088828983A3A3A3A3A3A3E05418604488F3
:104A6300828983A3A3A3A3A3E064017036E5104561
:104A730011603090037512492D88828983124C820C
:104A83008A0E8B0FA80EA90FE849601788828983C5
:104A9300A3E0600F851082851183A3125DC65003C6
:104AA300024978E50AF50E780E120CE0124C8B12CF
:104AB3000D24E9702B7C007D008514828515837499
:104AC300FFF0A3F0850C82850D83A3A3A3A3A3A367
:104AD300A3A3E06003124922A90B1252EE121BCFCB
:104AE300851482851583E0F47003A3E0F4603990A4
:104AF30003B4E064027003024978125027E0FAA37A
:104B0300E01240E612238AEA65087003EB65096048
:104B130003024978EEFAEF1240E612238A851482E3
:104B2300851583EAF0A3EBF07808120CDC7D011203
:104B33004C98120D24A90AEEFAEFFB12125D8A08B3
:104B43008B09A808A909900368E0687003A3E069CA
:104B53006003024C5BEEFAEFFB12105F8A088B09CD
:104B6300A808A909E849606E88828983A3A3A3A33F
:104B7300E06401600D88828983A3A3A3A3E0640298
:104B83007054851882851983AC82AD83EEFAEFFBEE
:104B9300120FF98055900361E0600FE50AF50E7876
:104BA3000E120CE0124C8B120D24E50AF50E780E52
:104BB300120CE079027CFE7DFFEEFAEFFB124E57FA
:104BC300120D24E96003024AE38514828515837478
:104BD300FFF0A3024B2A1213CBEAFCEBFD851882EC
:104BE300851983AA82AB8312218D850C82850D835F
:104BF300A3A3A3A3A3A3A3A3E06401700F12492259
:104C03007408120FBCAA82AB8312218D124E31128B
:104C13005A3D4430F5087808120CE07401120FBCB9
:104C23008582088583097808120CDC740B120FBC8B
:104C33008582088583097808120CDCE513F508786A
:104C430008120CE07900EEFCEFFD1252EE1211A3F4
:104C53007406120D24024978124E31125BA7124CCE
:104C6300A5E50BF01213E37410120D247F0E020A54
:104C7300BB1212518A0E8B0FA80EA90FE84922A36B
:104C8300A3125794121539227901AC08AD091257B2
:104C930089124E5722AC0BA91312578912120F74A3
:104CA3000222125A45A3A3A3A32274F01207FE748F
:104CB300F0120D9E8A0C8B0DECFAEDFB750F08902C
:104CC30003F5124E7B6014125DBF8A828B83E582EB
:104CD30045836007A3E07003024E2C124E3134006B
:104CE300124E67F50B88828983124E3AE0FBEC245F
:104CF30000FEE43BFF88828983A3A3124E3AA3A359
:104D0300E0FBECF508E43BF50988828983A3A3A3C0
:104D1300A3A3A3A3E0F50EE50AA2E45003750F10C5
:104D2300A2E550067408250FF50F748F550A700F0E
:104D3300E50C2417F582E50D126277650F6008799B
:104D430001122175024E2C530A707800E50AA2E481
:104D53005022124E311262772408FCA3E03400FD86
:104D63007408120FBCAA82AB8312218D7808E50A5E
:104D7300C2E4F50AE50AA2E55028124E3112627721
:104D830028F8A3E03400F9E82408FCE93400FD85A1
:104D93001882851983AA82AB8312218DE50AC2E5A5
:104DA300F50AAC0EA90BEEFAEFFB121215E9F87433
:104DB30003686075900368E06E7003A3E06F605E44
:104DC300E87054E50AF50F780F120CE0124E481202
:104DD3000D24E97054780A120CE07401120FBC859B
:104DE300820C85830D780C120CDC740B120FBC85BE
:104DF300820C85830D780C120CDCE50BF50A780A1E
:104E0300120CE0A90EAC08AD09EEFAEFFB1211A3E8
:104E13007406120D248012740468700D80B7780A2A
:104E2300120CE0124E48120D2474100245F1E50CE9
:104E3300241DF582E50D22A3A3A3E0FC88828983C8
:104E4300A3A3A3A322790112502E125BB8124E5DC5
:104E5300124E57221211CD740122E0FCA3E0FDAAE9
:104E630008AB0922F58312426DA3E0F50A88828913
:104E730083A3A3E0229003391257F02274E81207A8
:104E8300FE74F5120D9EEAFEEBFF8C088D09891462
:104E93007423120FBCE0F50F7424120FBCE0F5125B
:104EA300A3E0F5137426120FBCE0F516A3E0F51783
:104EB3007428120FBCE0F50EA90F12121B8A108B77
:104EC300117401120FBC7408F0E50EA2E4500374D0
:104ED30010F0E50EA2E55004E02408F08518828561
:104EE3001983AA82AB831214378A0C8B0DEA450D02
:104EF300700302500EEA2417F582EB1250201213AE
:104F0300CBE50C241AF582E50D125BA7123B8374E3
:104F130003120FBCAC82AD83AA10AB11120FF9E9D7
:104F2300601D1250187403120FBCA882A983E50CEC
:104F33002418F582E50D125BA7E8F0A3E98024E5C8
:104F43000EA2E4501FE5106E7003E5116F70151289
:104F53005018E50C2418F582E50D125BA7E512F055
:104F6300A3E513F0125027125036850A82F5837495
:104F730002F0A3E50E12503EE50FF0EE850A82859E
:104F83000B83A3A3A3F0EF850A82850B83A3A3A3BB
:104F9300A312503EA3A3A3E508F0E509850A828581
:104FA3000B83A3A3A3A3A3A3F0AA10AB111212090B
:104FB300E92514850A82850B83A3A3A3A3A3A3A333
:104FC300F0750800E50EA2E45011AC12AD13E50A2A
:104FD3002408FAE50B1245AA750808E50EA2E55068
:104FE30014AC16AD17E50A2508F8E50B3400F9E80B
:104FF30024081245A8850C82850D83A3A3E510F030
:10500300A3E511F0AA0CAB0D1210A7740B120D241B
:105013007F10020ABBE50C2416F582E50D125BB87E
:105023007401F02212502E125BB822E50C126BBEF3
:10503300E50D22E0F50AA3E0F50B22F0850A82854F
:105043000B83A3A32274F21207FE8A088B09ECFEDA
:10505300EDFF890A79001250DC7003A3E069700444
:1050630079018073750B01900368E065087004A3F0
:10507300E06509601F750B00780B120CE0A90AEEBE
:10508300FCEFFDAA08AB0912148B7401120D24E97D
:10509300F50B80417900EEFAEFFB121251EA4B60F7
:1050A3002B8A828B83A3A3A3A3A3A3E05418601C1E
:1050B3007508FE7509FF7808120CDC8A828B83A3BE
:1050C300A3120B441269D3120D2480097901EEFA5D
:1050D300EFFB12112BA90B801412125D8A0C8B0D9E
:1050E300A80CA90D900368E06822120D247F060224
:1050F3000ABB74F41207FE7508F275090F7A1012D1
:1051030066DB8B0BEA450B7003124404900353E0F8
:1051130014F0700C90288BE493900353F0121269EF
:105123007E007F00806C850882850983A3A3A3A3E7
:10513300E06059F46056E5082404F582E50912603D
:10514300A37049850882850983A3A3A3A3A3E0646D
:10515300037019790285088285098312492D850810
:1051630082850983A3A31252F51211A985088285AA
:105173000983A3A3A3A3A3E0640160108508828528
:10518300098374FEF0A30412524FE4F01237801225
:10519300354B90287A126837408C7E007F00803927
:1051A3001213718E088F0974037808120EC9746A7A
:1051B3002508FC74113509FD7AB57B1112135FEADA
:1051C3004B70DD8E088F0974037808120EC91252D2
:1051D3001D126A7EE4F012378090287DE493F8C3B1
:1051E300EE98EF9400501B8E088F09740378081211
:1051F3000EC9125225E82407F582E91260A370D67E
:1052030080A17E007F00800A125230600214F012E7
:10521300378012683440F1023DB3125225888289E7
:105223008322746A2508F874113509F922EEF8EF20
:10523300F9E875F006A4F8AAF075F006E9A42AF9CE
:10524300740A28F582741139F583E022125256A3A9
:10525300A3A322F0850882850983A3A32274F712EE
:1052630007FE74E1120D9EECFEEDFF750800EE4F94
:1052730060728A828B83E0241C1260D4124E7B609E
:10528300638A828B831252F5851882851983AC82D7
:10529300AD83EA241BF582EB125FA5EA241CF58299
:1052A300EB1252F11213B3740B120FBC1252F970BA
:1052B30003A3E069702E7402120FBCE06401702432
:1052C300741D120FBC1240EAE064017017741D12C2
:1052D3000FBC1240ECA3A3E0F88E828F83E06870CA
:1052E30003750801A908741F023B7012502E340085
:1052F300F58312579422122EA0E0682274F4120749
:10530300FEE97024790090034D1240EA12238A8A41
:105313000A8B0BAE0AAF0B74FE6E700374FF6F70D3
:105323001A902884E4936013790190034D1240EAA4
:1053330012238A8A0A8B0BAE0AAF0B1213FB0238B5
:10534300E874F61207FE74F3120D9E1219A18A086F
:105353008B09AE08AF09900368E06E7003A3E06F9A
:1053630060E91213D7EA6E7002EB6F60DEEEFAEFBC
:10537300FB12144FE970D4EE4F60D0851882851963
:1053830083E4F004120FBCEEF0A3EF1253A7E9700D
:10539300BA74FE6E700374FF6F60B0EEFAEFFB74C5
:1053A3000D023C0F123C9412101122C082C08312D2
:1053B30013FB023B3B7F0A020ABB74F21207FEEAAD
:1053C300FEEBFF8C0A8D0B8908740E120FBCE0F5FF
:1053D3000974FC6E700374FF6F700579000250F05E
:1053E300790012125D8A0C8B0DAE0CAF0D90036821
:1053F300E06E7003A3E06F7006E509A2E650DCA936
:10540300091268C1706179007AFE7BFF1268C1706E
:10541300567418550970030254F478007900800318
:1054230012309A90287A12309140030254F4E8FA29
:10543300E9FBEA75F007A4FAACF075F007EBA42CCE
:10544300FB74F82AF582740F3BF583E0541870D08F
:10545300E875F007A4F8AAF075F007E9A42AF9742F
:10546300F228F8740F39F988828983A3A3A3A3A32D
:10547300A3E0541860097418550970030253DE88B9
:10548300828983EEF0A3EFF074FE650A700474FF63
:10549300650B600312561B88828983A3A3A3A3A36E
:1054A300A3E509F0A2E0500D88828983A3A3A3A3F7
:1054B300A3A3D2E2F07401650888828983A3A3A31E
:1054C300A3A37038740112563FE054186028902843
:1054D30088E49388828983A3A3A3A3125609121590
:1054E300398B0DEA450D60030253DE7800790080A5
:1054F3003979020253E0900367E080D7E0640170DA
:10550300030253DE88828983A3A3A3A3A3A3E05446
:10551300186007902888E4938004900366E012459E
:10552300B1E508F00253DE12309A90287EE493FA34
:10553300C3E89AE9940040030253DE7A007B0080BB
:105543004BEAFCEBFDEC75F007A4FCAEF075F0073D
:10555300EDA42EFD74F42CF582740F3DF583125BDC
:10556300C0E8FCE9FDEC75F017A4FC85F00975F0C3
:1055730017EDA42509FD74822CF582740E3DF58385
:10558300E06E7003A3E06F609E12365590287A1286
:10559300355B40AD12463BEC6A7002ED6B7088E8F8
:1055A30075F017A4F8AAF075F017E9A42AF9748224
:1055B30028FE740E39FF7C177D007900EEFAEFFBAD
:1055C3001219958E828F831256219003751255FB03
:1055D300A3A3A3A3A3A3E8F0A3E91256017401F0C4
:1055E300EE240E125BA4740112562912061EEE2439
:1055F3000D125BA4E8025526123B53A3A322F0EE3F
:10560300240F125BB522F0125612AA0AAB0B22909A
:105613000375E0FCA3E0FD2288828983A3A3E50A46
:10562300F0A3E50BF022F012562E22902881E4938A
:105633002401F8E43400F97A027B00221245BDA369
:105643002274ED1207FE8A088B09890E12577240E5
:10565300057905025740121C17AA08AB09125844D2
:10566300902874125743650A7003E9650B70077A33
:10567300FE7BFF125844902874E412574BE50A98B6
:10568300E50B99400302573E12574F6012E50A7526
:10569300F006A4F875F006E50B12579A121A55E5B1
:1056A3000E6018E50A75F006A4F8AAF075F006E591
:1056B3000B1257C6701A7901025740E50A75F006B6
:1056C300A4F8AAF075F006E50B1257A7E4F0A3F0CF
:1056D300E50A75F006A4F8AAF075F006E50B125773
:1056E30067A3125A5388828983A3AA82AB83125772
:1056F300B58A828B83E0603F12574F603A8E108FDA
:10570300117512007810120CD8E50EC333FCE43384
:10571300FDE50A75F006A4F50AA8F075F006E50B99
:10572300A428F50B740E250AF5827411350B125259
:10573300F31235F3120D247900800279070268D73A
:105743001231F3E8229009D612625E22E50A75F05F
:1057530006A4F8AAF075F006E50B1257A2F8A3E029
:10576300F9E84922A42A1258FB88828983A322ECF0
:10577300FEEDFF90287FE493F8E9C39822F58312A6
:105783005794121A5522E50C126BBEE50D3400F541
:1057930083E0FAA3E0FB221257A2FAA3E0FB221252
:1057A30057A7E022A42AF9740E28F582741139F55B
:1057B3008322E50EF09012B21257BF22E08882894D
:1057C30083F02212591FF50CE93400F50DE50EC3E1
:1057D30033FAE433FB121A4F850C82850D83EAF00A
:1057E300A3EBF0850C82850D831257F0221245E955
:1057F300E8492274F41207FEECFEEDFF740C120F5D
:10580300BC123BFD88088909125844AC0AAD0BEC65
:10581300F8EDF990287412584C5021E875F006A45D
:10582300F8AAF075F006E9125767E08E828F8312AB
:10583300585F125855123C09790080027904023DE1
:10584300B31211DF8A0A8B0B221235EBC3EC9AEDEC
:105853009B221245E5850882850983221259342249
:1058630074F61207FE7E007F008028EEF8EFF9E859
:1058730075F006A4F8ACF075F006E9A42CF9740CE5
:1058830028F58274111264E26A7003A3E06B605717
:1058930012378012683440D312682F7002E96F7098
:1058A3004674FE6A700374FF6B703C7E007F008059
:1058B30003123780126834502E12523070F3EEF810
:1058C300EFF9E875F006A4F81258F112592660179B
:1058D30012590DF8E91259058882125780850882FA
:1058E300850983E4F0A3F0EEFAEFFB023C1275F0B6
:1058F30006E91258F922A42AF9740A28F87411390E
:10590300F9223400F98808890922EEF8EFF9E875DD
:10591300F006A4F875F006E912591F221258F9E8A7
:10592300240422A3A374FE1259311257F022F0A3C8
:105933000412593822F088828983A3A3A3A3227473
:10594300F61207FEEA241DF582EB125A3DF9604B6D
:10595300EA241DF582EB1262772402FCA3E03400F3
:10596300FD1257764003025A30780080298C828DCD
:1059730083E0F508A3E0FFE5082400E43FF509E828
:1059830033FEE433FF74522EF58274113FF5831214
:105993005A53125A3308E8C39940D28A828B83A39D
:1059A300A3A3A3A3A3A3A3A312492D900368E06C0D
:1059B3007003A3E06D700F7C527D11122E091252F9
:1059C300F11211D38067EA2411F582EB126277603A
:1059D3005CFC74FF2CF07508017808120CE0750864
:1059E300527509117808120CDCE9F5087808120CD5
:1059F300E0EA2412F582EB126277F5087808120CBC
:105A0300E0EA2415F582EB125BA7120B44ECF912C2
:105A13002E0912492A8A828B83A3A3A3A3A3A3A338
:105A2300A3A31252F51211EB7407120D24023C12B8
:105A3300EC24020C0CED3400FD22125BB8125A4523
:105A4300E022E0F8A3E0F5838882A3228882898399
:105A5300E508F0A3E509F02274EA1207FE74FD12CB
:105A63000D9E8A148B158C0E8D0F890D7419120FD0
:105A7300BC125BC0741B120FBCE0F511741C120F37
:105A8300BCE0F50C741D120FBC125036741F120FBC
:105A9300BCE0F5106008E50CC333240480027402F3
:105AA300C0E07401120FBCD0E0125BD18A088B09ED
:105AB300EA45097003025B9C8A828B83A3A3E514E6
:105AC300F0A3E5151266CAE50EF0A3E50FF0EA248C
:105AD30013F582EB125BA7E50DF0EA2414F582EBD4
:105AE300125BA7E511F0EA2417F582EB12627764E3
:105AF3000170401213D18A0E8B0FA80EA90F8508CF
:105B030082850983A3A3A3A3E0687003A3E069606C
:105B130022EE4F6011E508241AF582E509125BA70E
:105B2300EEF0A3EF800CE5082417F582E509125B7C
:105B3300A7E4F0125BAB125BC08E828F837405F017
