:020000040000FA
:06000000020FF70205E10A
:03002B00020D764D
:03004300020BC8E5
:0300530002050F94
:10008300020576010101FF01010503010F10FEFFC7
:10009300F518F518F518F5189F179917F518DA27B5
:1000A300000000009E28000000000C0000000C006F
:1000B30001FF01010100F1060000006E07E803647F
:1000C300006400B8010202002000000502070105D8
:1000D3001E02051E020A0A03B80B02803E0102013A
:1000E300ABAC020A1401E0965118000202000000B2
:1000F300000001170601030507090B0D0F00020499
:1001030006080A0C0D0301FF030006000231D41296
:100113001016601D1210437005191919801A120E5A
:100123006E701F120E59C37003E667331919194015
:10013300071818182208080874FFF618F618F61896
:10014300F622120E596017121082702192F01210CB
:100153008C7019501720F014080808090909E7F6EC
:100163001819E7F61819E7F61819E7F62212108C92
:1001730060E6E869701F0808E62480F608E436F6AE
:1001830018547FB47F0CE654806007F6E418F61821
:10019300F622181822E9C6CC08C6CD08C6CE08C672
:1001A300CFC0E0E8C0E0EAC0E0EBC0E009E9F8094D
:1001B300E7FA09E7FBE6F918E6F8C3EC98ED99EEE0
:1001C3009AEBC2E7F5F0EFC2E795F0500E600CEB47
:1001D300CFFBEACEFAE9CDF9E8CCF8EAA2E7D2E719
:1001E300FAEB33FB13F5F0EEA2E7D2E7FEEF33FFB2
:1001F300C5F013A2E730E601B313C5F0C3C0E0C0F6
:10020300F07F00C39BFB605B9418600C401AD0E046
:1002130023F9D0E0F80202F08AF0E9486003D2F053
:10022300E4AFF0FAF9F8803BEB30E40D89F0EA60D3
:1002330003D2F0E4AFF0F9CAF8EB30E30D88F0EF46
:100243006002D2F0AFF0E4CAC9F8EB54076014FBC4
:10025300C3EA13FAE913F9E813F8EF135002D2E0F3
:10026300FFDBEDD0E0C0E030E739C3E49FFFF5F0FA
:10027300EC98FC42F0ED99FD42F0EE9AFE42F0D08C
:10028300E0F9D0E0F8E5F0607AE923F9EE20E742FF
:10029300D8028067C3EF33FFEC33FCED33FDEE335D
:1002A300FE80EAEC28FCED39FDEE3AFED0E023F9BE
:1002B300D0E0F84002801BC3EE13FEED13FDEC13F8
:1002C300FCEF135002D2E0FF08B800067F7F74FFF3
:1002D300802EEF3350178CF020F00260100CBC001E
:1002E3000C0DBD00080EBE000408E860DFE933E82A
:1002F30013FFEE2313FE4F4D4C8008E95480FFE4B7
:10030300FEFDFCEE33EF33F47004FCFD7E80D0E0A1
:10031300FBD0E0FAD0E0F8D0E0CFC618CEC618CDB7
:10032300C618CCC6F9221210167004181818221217
:100333001043700D74FFF61819F61819F61819F60C
:1003430022E7548066F612108C700F12108270F040
:1003530014F608F608F608F680D1121082700CF62F
:1003630008F608768008E6447F80EC120E5C700C79
:10037300120E7160BFE65480F6E480BB120E7170FA
:100383000519191980A5E869700C763F187680184D
:10039300F618F6E8F922E6CDC0E018ECC0E0E63343
:1003A300CD33CDD313F6E719FCE7191933CC33C397
:1003B300947F400ECD9D502408E65480F6E418F651
:1003C300800FF4043D14501408E6447FF618768039
:1003D300E418F618F6D0E0FCD0E0FD22CCD313CC21
:1003E300FD18E4C6CBC0E018E4C6CAC0E00808EDB7
:1003F30008C633E613F618E433C675F003C3CA9789
:10040300CA09CB97CB199C40047D08802EBD0003FD
:100413000204D216B6FF050606081618C3CA33CA65
:10042300CB33CB33CA27CA09CB37CB193CC37D089F
:10043300803E187D0820E75CC633C6CA33CACB3377
:10044300CB33DDF1D5F0EB30E77BCA97CA09CB9705
:100453004ACB199C406F4B7025E620E0218066183B
:100463007D08C3CA97CA09CB97CB199CD3C633C699
:10047300CA33CACB33CB3350C9DDE7D5F0E1D3E47C
:10048300C636C608C636C608C636C608C636C61831
:1004930018188031C3CA97CA09CB97CB199CB340AC
:1004A30097C633C6CA33CACB33CB33DD34D5F02E2C
:1004B300C6A2E0C640C8CA27CA09CB37194A70BECC
:1004C300CB3CB480B90808E63308E633601F18183C
:1004D30018D0E0FAD0E0FBD0E0FCD0E0FD22187D9C
:1004E30008CA27CA09CB37CB193CD3808013F61827
:1004F300E4B67F11F618B6FF0EF618C60470D208DC
:1005030008768080CAF618F618F680C5C0E074F243
:100513001208F4A2AFE433FED2AFE5A7FFE5A1F5DD
:10052300085F541060061220CF75A1EFE5085F54F1
:100533000860081220D575A1F7802BEFA2E0C0D088
:10054300E508A2E092F0120F36158182F050179061
:100553006198E0F8900C54E0C398A2D265D0335070
:1005630002E8F075A1FE751A00EEA2E092AF7F01DA
:100573000209B0C0E074F21208F4A2AFE433FED271
:10058300AF9061A4E0F8759B00E5915854086008AA
:100593007591F712211D802AE59158541060087552
:1005A30091EF122123801BE8A2E0C0D0E591A2E0E5
:1005B30092F0120F36158182F05007E0C2E0F0127C
:1005C300227F9061A3E0F8E5E9585404600E1222FB
:1005D3005575E9FB906193E0A2E640F28088C0E0A4
:1005E30074F21208F4A2AFE433FED2AF9061A5E037
:1005F300F8E5BF585404600675BFFB122297020545
:1006030069C3E498F8E499F91206458026C3E49A8D
:10061300FAE49BFBE920E7E9120645E498F8E4993C
:10062300F922C3E498F8E499F9120645E498F8E44A
:1006330099F9C3E49AFAE49BFB22EB20E7CFE92084
:10064300E7E0B90010BB0008E88AF084F8AAF022BA
:10065300E4FBC8FA22EB70227B10C833C8C933C944
:10066300335007C39AC3DBF280069A50012ADBEAB0
:10067300C833F4C8C933F4C9FA2275F008E4C8339F
:10068300C8C933C933C99AC99B5004C92AC93BD5C0
:10069300F0ECFBC833F4C8E4C9FA221206DE20F0FA
:1006A3001430E72B74FFFCFBFA747F8022E4FCFB1D
:1006B300FA7480801AB48008BC00F2BB00EF800F8C
:1006C30050EBF9E4C39AFAE49BFBE49CFCE499C67F
:1006D300CC18C6CB18C6CA18C6F922E4C9C608CABC
:1006E300C608CBC6D3330308CCC63392F0C3947F7A
:1006F300402E94184019C9B90704CACBCC225025FF
:10070300C309CA33CACB33CBCC33CC33D9F422F4A9
:10071300600DC9CCC313CB13CBCA13CAD9F6CC22F1
:10072300E4FCFBFA2214FCFBFA22080808EAC0E006
:10073300EBC0E086F0E7A4FA180986F0E7A42AFAEA
:10074300180986F0E7A42AFA180986F0E7A42AFA1A
:100753001986F0E7A4FBE5F02AFA190886F0E7A466
:100763002BFBE5F03AFA190886F0E7A42BFBE5F03A
:100773003AFA18180986F0E7A4C5F02BFBE43AFA15
:100783001908E7C5F0C6A426F6E5F03BFBE43AFA00
:100793001886F0E7A4F6E5F00826F6E43B08F6E44D
:1007A3003A08F6D0E0FBD0E0FA22E4CFC0E0E4CE92
:1007B300C0E0E4CDC0E0E4CCC0E075F020C3E63394
:1007C300F608E633F608E633F608E633F6181818A3
:1007D300EC33FCED33FDEE33FEEF33FFC3EC97094F
:1007E300ED9709EE9709EF97191919400FFFEC9749
:1007F300FC09ED97FD09EE97FE191906D5F0BEEC3D
:10080300F709EDF709EEF709EFF7191919D0E0FC2D
:10081300D0E0FDD0E0FED0E0FF222518C582C0E085
:10082300E51934FFC583C0E0E518C3958224F810A9
:10083300AF088583198582188008858319858218F6
:10084300D2AFCEF0A3E520F0A37808E608F0A3DE4C
:10085300FAEFF0A3E58124FAF8E608F0A3E608F03E
:10086300A3E608F0A30808E608F0A3E608F0A3153A
:10087300811581D0E0FED0E0F8158115811581E85E
:10088300C0E0EEC0E022121077B900030208DEE4F4
:100893009004D1786D790F8002F0A3D8FCD9FA784F
:1008A3001A9000867A01BA00028007E493A3F6083F
:1008B300DAF990133DAA82AB83900087788C790193
:1008C3008015E493A3AC82AD838A828B83F0A3AAC1
:1008D30082AB838C828D83D8E9D9E77582CE758309
:1008E3007D7400120D587582DF7583257400120D17
:1008F30058C0D02518C582C0E0E51934FFC583C0B0
:10090300E0E518C3958224F310AF08858319858227
:10091300188008858319858218D2AFC8F0A3E9F03F
:10092300A3EAF0A3EBF0A37908E709F0A3D8FAEC64
:10093300F0A3EDF0A3EEF0A3EFF0A3D0E0F0A3D08B
:10094300E0F0A3D0E0F0A3E520F0A3E5F0F0A322CC
:10095300E9799EC608CAC608CBC608CCC6C37020B0
:100963007996CACBCC7019798ECBCC70137986CC9F
:10097300700EF9802ACA33CACB33CBCC33CC3319AC
:1009830030E7F2CCCBCA3350147004EA30E00DE404
:10099300CA3ACACB3BCBCC3CCC500209C3E913C601
:1009A300CC182313C6CB18C6CA18C6F922851983D7
:1009B300851882E0C0E0A3E0F9A3E0FAA3E0FBA37B
:1009C3007808E0F608A3DFFAE0FCA3E0FDA3E0FE6D
:1009D300A3E0FFA3E0C0E0A3E0C0E0A3E0F5D0A361
:1009E300E0F520A3E0A3F5F010AF08858319858215
:1009F300188008858319858218D2AFD082D083D01E
:100A0300E0F8D0E032120F951818181207AD120F44
:100A1300A619191922120FA6191919080808E61898
:100A2300181820E7E01207AD120F951818182209BD
:100A33000909E719191920E7DC080808E618181846
:100A430020E7030207AD120F951818181207AD120D
:100A53000F95181818120FA6191919220975F010F5
:100A63008E218F2285822685832585188285198389
:100A7300E0CEA3E0CF852682852583EBC9EAC8EDC6
:100A8300CBECCAC3E833C8E933C9EA33CAEB33CB87
:100A9300C3EA9EF524EB9FF523B35004AB23AA24AA
:100AA300EC33CCED33CDD5F0DAAE21AF2222D083B7
:100AB300D082ECC0E0EDC0E0E493A3FCE493A3FD9B
:100AC300ED4C600D120B89EC24FFFCED34FFFD802F
:100AD300EFE493A3FCE493A3FDED4C600D120C63D0
:100AE300EC24FFFCED34FFFD80EFD0E0FDD0E0FC13
:100AF300E493A3C0E0E493C0E022D083D082E9C0B2
:100B0300E0E493A3C386F0C5F095F0F908E493A35A
:100B130086F0C5F095F0700BE493A3C3994005E903
:100B2300048002A3E475F002A42582F582E5F03582
:100B330083F583D0E0F9E493A3C0E0E493C0E0221B
:100B4300851983851882E0A3FEE0A3F5207808E0E9
:100B5300A3F608DFFAE0A3FFE0A3C0E0E0A3C0E050
:100B6300E0A3C0E0E0A3C0E0E0A3C0E010AF0885CD
:100B730082188583198008858218858319D2AFD09E
:100B830083D082020D5EC0E0C3E4939608740193A0
:100B93009618400FE4936670080874019366187002
:100BA300007019A3A3C3E49396087401939618A342
:100BB300A3400DD0E0D0E0D0E0020AEDA3A3A3A3AD
:100BC300A3A3D0E022C0E074F21208F4A2AFE4338E
:100BD300FED2AFC2C090133CE0700BE5D1A2E4504B
:100BE300171220338012E5D1A2E3500375D1F7E544
:100BF300D1A2E4500375D1EFEEA2E092AF7F0102E0
:100C030009B07404800474028000CCC0E0EDC0E03D
:100C1300E518C39CCCAD1950011D10AF068C188D7F
:100C23001980068C188D19D2AF120CDAD0E0FDD0E2
:100C3300E0FC2274028000CCC0E0EDC0E0E518C304
:100C43009CCCAD1950011D10AF068C188D19800670
:100C53008C188D19D2AF120CB8D0E0FDD0E0FC2275
:100C6300C0E0C0F088F0E4936670080874019366EE
:100C7300187000A8F0A3A3700BD0F0D0E0D0E0D0A0
:100C8300E0020AEDA3A3D0F0D0E022D083D082CC3F
:100C9300C0E0E493A36006120CFB1470FAE493A380
:100CA3006006120E2D1470FAD0E0FCE493A3C0E0AA
:100CB300E493C0E022CAC0E0E493A3C582CCC5821A
:100CC300C583CDC583F0A3C582CCC582C583CDC5FD
:100CD30083DAE5D0E0CA22CAC0E0E0A3C582CCC56E
:100CE30082C583CDC583F0A3C582CCC582C583CD20
:100CF300C583DAE6D0E0CA22C0E0E493A3D39C50D4
:100D030010E493A3C39C400AD0E0D0E0D0E0020CEF
:100D1300ABA3A3A3D0E02270090808082260161829
:100D23001818C6C333C608C633C608C633C608C6B2
:100D330033C6D5E0EA22C008C3E096F50808A3E06D
:100D430096420808A3E096420808A3E09645087077
:100D530001D3D00822C09FF59FE473D09F22D08394
:100D6300D082C09FE493C0E0740193C0E074029307
:100D7300F59F22C0E0C0D0E8C0E0E5A8D2AFC2C76B
:100D8300751A00A2E792AFD0E0F8D0D0D0E0327469
:100D930004800A74038006740280027401C0E0F4C4
:100DA30004120DADD0E0121052222518F58210AFB7
:100DB30008F518400215198008F51840021519D2D4
:100DC300AF85198322C0D0251810AF08F51850023B
:100DD30005198008F51850020519D2AFD0D022BBEF
:100DE3000102E722C082C08389828A83BB0003E0B9
:100DF3008002E493D083D082226016080808C6C319
:100E030013C618C613C618C613C618C613C6D5E02C
:100E1300EA22C3E0C696F608A3E0C696F608A3E066
:100E2300C696F608A3E0C696F622C0E0E493A36C48
:100E33007009D0E0D0E0D0E0020CABA3A3D0E02255
:100E4300251810AF08F518400215198008F5184049
:100E5300021519D2AF22191919E7094709700AE7D0
:100E630009C3337005E733F4220922181818E6087A
:100E73004608700AE608C3337005E633F4220822F5
:100E8300C3E09608A3E09608A3E09608A3E096A221
:100E9300D265D03322E066701008A3E066700A08BA
:100EA300A3E066700408A3E06622E76670100809F1
:100EB300E766700A0809E76670040809E76622C353
:100EC300E697F60809E697F60809E697F60809E6AD
:100ED30097F622C3E096F008A3E096F008A3E09605
:100EE300F008A3E096F022E627F60809E637F608AD
:100EF30009E637F60809E637F622E026F608A3E006
:100F030036F608A3E036F608A3E036F622E026F02C
:100F130008A3E036F008A3E036F008A3E036F02299
:100F2300700422600D18C6C333C608C633C6D5E0A5
:100F3300F41822C0E0E8C0E0E58124FCF8E6A2E76B
:100F4300D0E0F8D0E022E657F60809E657F608099C
:100F5300E657F60809E657F622E056F008A3E056EE
:100F6300F008A3E056F008A3E056F022E056F60896
:100F7300A3E056F608A3E056F608A3E056F622E6E9
:100F830047F60809E647F60809E647F60809E6477B
:100F9300F622E4C396F608E496F608E496F608E427
:100FA30096F622E4C397F709E497F709E497F7095C
:100FB300E497F722C6F4C608C6F4C608C6F4C60802
:100FC300C6F4C622C3E7960809E7960809E7960818
:100FD30009E79622C3E09608A3E09608A3E09608E3
:100FE300A3E09622600D08C6A2E713C618C613C66F
:100FF300D5E0F32275D0007581407518D1751904B9
:1010030000020889E6F008A3E6F008A3E6F008A3C7
:10101300E6F022E6084608C3134608336002E633C7
:10102300F422600C08C6C313C618C613C6D5E0F471
:1010330022E0F608A3E0F608A3E0F608A3E0F62210
:10104300E7094709C3134709336002E733F422CAA8
:10105300C0E0E6F0A308DAFAD0E0FA22EAF0A3EB64
:10106300F0A3ECF0A3EDF022E0FAA3E0FBA3E0FC95
:10107300A3E0FD22E5C754F84401F5C7790122E74F
:10108300C33319471947194722E6C333184618468D
:101093001846222518F582E43519F58322C2AF7567
:1010A300D69F02000022120D61B92D00120D61E2DC
:1010B3002D00120D61FB2D00120D61212E00120D6A
:1010C300615C2E00120D61A02E00120D61C72E006F
:1010D300120D61182F00120D61C82F00120D6180CF
:1010E3003000120D61483100120D61083200120DFB
:1010F300614C3200120D61713200120D61B4320085
:10110300120D61013300120D61593400120D61DFBC
:101113003400120D61FD3400120D61273500120DEC
:1011230061413500120D61503500120D615B3500D0
:10113300120D611B3600120D61743600120D6136FB
:101143003700120D613E3700120D61C23700120DD8
:1011530061083800120D61893800120D61F53800FD
:10116300120D61203A00120D61453A00120D6156CD
:101173003A00120D61CC3A00120D615E3B00120D74
:1011830061B63B00120D61763C00120D61953C0087
:10119300120D61A43D00120D61B63D00120D6109EF
:1011A3003E00120D61463E00120D61533E00120DCA
:1011B30061D63F00120D61354100120D6167410098
:1011C300120D61FA4100120D61334200120D617F6D
:1011D3004200120D619B4300120D61E44500120DA4
:1011E30061EF4500120D61FA4500120D61054600DD
:1011F300120D610F4600120D611A4600120D613483
:101203004600120D613E4600120D61484600120D64
:1012130061534600120D615E4600120D6186460061
:10122300120D61E14600120D61EB4600120D610FD4
:101233004700120D61334700120D61914700120DF3
:1012430061D54700120D61F14700120D6168480036
:10125300120D61A04800120D61EC4800120D6149A6
:101263004900120D61034A00120D61E74B00120D94
:1012730061404C00120D61704D00120D61964D00DE
:10128300120D611F4F00120D619B5200120D616D13
:101293005400120D61365600120D61E35600120D13
:1012A300614E5800120D61ED5800120D6132590064
:1012B300120D619C5900120D61AB5900120D613280
:1012C3005C00120D61E45D00120D61515E00120DB0
:1012D30061305F00120D61496000120D61C661004B
:1012E300120D61E56100120D613A6200120D613F5A
:1012F3006300120D61676300120D61BF6300120D7D
:10130300619E6400120D61E26400120D612D65009F
:10131300120D61986500120D61D96600120D613DD1
:101323006700120D618B6800120D61EB6A00120DEC
:10133300611C6B00120D61D46C00120D61296D00EC
:10134300120D612D6E00120D61CA6E00120D612324
:101353006F00120D61D66F00120D61787000120DCF
:1013630061187100120D61BD7100120D618B830153
:10137300120D61D48301120D614C8601120D618B34
:101383008601120D61D58601120D61138801120DBC
:1013930061728801120D61A68801120D61E4880152
:1013A300120D61578A01120D611A8D01120D614DE3
:1013B3008E01120D61E38E01120D613A9801120D37
:1013C30061D49801120D61BB9B01120D61D59C0183
:1013D300120D61369D01120D61529E01120D61982D
:1013E3009F01120D617AA001120D615FA201120D1E
:1013F3006170A401120D61DEA401120D61B0A5019B
:10140300120D6167A601120D6171A601120D61A093
:10141300A601120D615DA701120D6134A801120D21
:1014230061FBA801120D6196A901120D610DAA01BC
:10143300120D6136AA01120D6158AA01120D61A89D
:10144300AC01120D6180AD01120D61C4AD01120D2D
:10145300612CAE01120D61E4AE01120D6116AF01F4
:10146300120D615AAF01120D6190AF01120D61DCD3
:10147300AF01120D6131B001120D6136B001120DD1
:101483006189B001120D61AEB001120D61BEB101EF
:10149300120D6136B201120D6192B201120D611E7D
:1014A300B301120D610DB601120D61F0B601120DFB
:1014B3006187B801120D61BDBA01120D616BBB01E9
:1014C300120D611CBC01120D615EBE01120D6101A2
:1014D300BF01120D6148BF01120D61F4C001120D6D
:1014E3006108C101120D6112C101120D613AC101FE
:1014F300120D6146C101120D6165C101120D61AF8B
:10150300C301120D61E4C301120D61EEC301120D9B
:1015130061F8C301120D6153C401120D61D1C401FD
:10152300120D6120C601120D6164C601120D610C1A
:10153300C701120D61EFC701120D619AC801120DA7
:1015430061E6C901120D61E4CA01120D618ACB0182
:10155300120D611ACC01120D6131CC01120D6168BB
:10156300CC01120D6172CC01120D617DCC01120D03
:10157300619BCC01120D61DFCC01120D613CCD01E9
:10158300120D6161CD01120D617BCD01120D610D53
:10159300CE01120D6137CF01120D61AECF01120DD5
:1015A3006195D001120D61CBD001120D613FD101C4
:1015B300120D61B9D101120D61BDD201120D61B3DA
:1015C300D301120D6168D401120D6125D501120DED
:1015D30061FED501120D619AD601120D6127D70163
:1015E300120D6105D801120D613DD801120D6195EF
:1015F300D801120D615ED901120D617FD901120D5F
:101603006106DA01120D612ADA01120D614CDA0169
:10161300120D6195DA01120D61ABDC01120D6192BD
:10162300DD01120D613DDE01120D617AE001120D43
:1016330061CAE001120D610AE101120D614CE10181
:10164300120D61A6E101120D61D4E101120D61F8E1
:10165300E101120D614BE201120D6179E201120DFC
:1016630061B2E201120D6111E301120D617EE3012A
:10167300120D61CDE401120D61F0E601120D615905
:10168300E701120D6182E701120D610DE801120DF0
:101693006179E801120D61C4E801120D61E8E80106
:1016A300120D610CE901120D6168E901120D6183EC
:1016B300E901120D613CEA01120D617C8002120DF9
:1016C30061C28002120D61A28102120D61A4820225
:1016D300120D61A78302120D61338502120D619110
:1016E3008502120D614E8602120D616C8702120D86
:1016F30061DD8702120D61198802120D616788028C
:10170300120D61718802120D61B58802120D61110B
:101713008902120D61AC8902120D61298A02120D30
:1017230061F88A02120D61918B02120D61B18B0275
:10173300120D61E78B02120D61188C02120D61D933
:101743008C02120D61E98C02120D613D8D02120DA6
:1017530061588D02120D616A8D02120D61738D0243
:10176300120D61CD8D02120D61298E02120D61756C
:101773008E02120D61908E02120D61C18E02120D46
:1017830061DE8E02120D61EA8E02120D615E90021D
:10179300120D61779002120D61DE9002120D61F15C
:1017A3009002120D61FF9002120D61B39102120DAE
:1017B30061979202120D619D9302120D61279402AB
:1017C300120D61319402120D619E9402120D61B5E6
:1017D3009402120D61E79402120D61209502120D1D
:1017E300614A9502120D61AB9502120D61CB950210
:1017F300120D61E99502120D612F9602120D6155CA
:101803009702120D61A29702120D61D19702120D78
:1018130061479802120D616F9802120D61A8980238
:10182300120D61B69802120D610E9902120D615DDF
:101833009902120D619C9902120D61CC9902120D4D
:1018430061F89902120D61039A02120D61219A0245
:10185300120D61E39A02120D61ED9A02120D6128D5
:101863009B02120D613E9B02120D61479B02120DFA
:10187300619C9B02120D61B09B02120D61BE9C0222
:10188300120D61D19C02120D61E89C02120D61FDE3
:101893009C02120D619F9D02120D61229E02120D88
:1018A30061E09E02120D61EB9E02120D6117A00210
:1018B300120D6133A002120D6185A002120D61C4E5
:1018C300A002120D61D9A002120D613BA102120DFB
:1018D30061CAA102120D6115A202120D6166A40272
:1018E300120D61E4A402120D6159A502120D617B70
:1018F300A702120D6193A702120D6196A702120DA2
:1019030061A2A702120D61B6A702120D61BEA70262
:10191300120D61F1A702120D61A1A802120D611748
:10192300A902120D618AA902120D613EAA02120DCB
:1019330061F3AA02120D6112AB02120D61B2AB0286
:10194300120D61BEAB02120D61E9AB02120D61EC27
:10195300AB02120D611BAC02120D6130AC02120D11
:10196300619AAC02120D61C2AD02120D619AAE0210
:10197300120D6125AF02120D613EB002120D61FB23
:10198300B002120D6134B102120D6165B102120D84
:101993006123B202120D6153B202120D612EB30222
:1019A300120D61C7B302120D6152B402120D61032D
:1019B300B502120D6186B502120D61B8B502120DA2
:1019C30061F9B502120D612EB602120D61DFC1037A
:1019D300120D6144C203120D6181C203120D61D065
:1019E300C203120D61E6C403120D61C9C603120DD1
:1019F300613DCA03120D6178CA03120D619ACA03CD
:101A0300120D61FDCA03120D6131CB03120D615436
:101A1300CB03120D6181CB03120D61DDCB03120DDC
:101A230061097200120D61877200120D61BD7200AF
:101A3300120D61297300120D619C7400120D61B8BF
:101A43007400120D61FD7400120D618B7500120D8F
:101A530061E47500120D61117700120D61237800A6
:101A6300120D61807800120D61EC7800120D610C8B
:101A7300E002120D618E7900120D613B7A00120DA6
:101A8300614D7B00120D61787B00120D61C37B00F9
:101A9300120D610A7C00120D619C7C00120D6157CE
:101AA3007D00120D6135AC04120D6143AC04120DBF
:101AB3006194AC04120D61A4FF02120D61AAAD047E
:101AC300120D61F5F702120D6141F802120D61AFBB
:101AD300F802120D61D0F802120D6180F902120DA5
:101AE3006189F902120D617F2D00120D6105FA0261
:101AF300120D616CFA02120D61FDFA02120D613FC3
:101B0300FB02120D6189FB02120D61E8FB02120D4B
:101B13006114FC02120D61A5FC02120D61E4FC02CA
:101B2300120D6123FD02120D6158FD02120D616A4F
:101B3300FD02120D617CFD02120D61AFFD02120D5B
:101B430061EFFD02120D617C8F04120D614F900451
:101B5300120D61609004120D61759204120D61976C
:101B63009C04120D61CD9C04120D61169D04120D8F
:101B730061669E04120D6176EA01120D61B5EB01F7
:101B8300120D61F1EB01120D61B0ED01120D61D97E
:101B9300ED01120D616CF001120D61B0F001120D37
:101BA3006139F201120D61D1F201120D6139F301B4
:101BB300120D61DAF301120D611CF401120D615C67
:101BC300F401120D61E7F501120D6157F701120DD2
:101BD300617CF901120D61AAF901120D61D1F901BC
:101BE300120D61DAF901120D6161FA01120D617FC3
:101BF300FD01120D6111AB04120D6127AB04120D2F
:101C03006131AB04120D6181AB04120D615E880476
:101C1300120D61718804120D610E8904120D614A5F
:101C23008904120D61618904120D61868904120D04
:101C330061C88904120D61F98904120D61348A04A3
:101C4300120D61AE8B04120D61EF8B04120D61CB8B
:101C5300A304120D611BA404120D6174A404120DDC
:101C630061F8A504120D613AA604120D617CA60465
:101C7300120D618CA604120D6196A604120D61AEBD
:101C8300A604120D61D8E502120D611AE602120DC7
:101C93006116E702120D61AFE702120D61F9E70267
:101CA300120D6148E802120D6127EA02120D612E3E
:101CB300EB02120D6169EB02120D6186ED02120D4A
:101CC30061A1ED02120D61F0ED02120D6106EE024B
:101CD300120D6113EE02120D6143EE02120D615CEF
:101CE300EE02120D6106EF02120D6160EF02120D9A
:101CF30061B2EF02120D61D7F002120D61F9F00229
:101D0300120D6181F302120D61AFF302120D613501
:101D1300F402120D61AAF402120D61AFF402120D66
:101D230061EBF402120D614AF502120D611CF60219
:101D3300120D6150F602120D615AF602120D615D29
:101D4300F602120D6160F602120D61DDF602120D4C
:101D530061F8F602120D610BF702120D6137F702FB
:101D6300120D6172F702120D6175F702120D618097
:101D7300F702120D61BCF702120D6102A804120DE5
:101D83006113A804120D619BA804120D6129CC03F1
:101D9300120D6198CC03120D619FCE03120D6104E5
:101DA300D003120D61C6D103120D610ED203120DC1
:101DB3006100D303120D6131D403120D615CD403AE
:101DC300120D61C0D403120D613FD503120D61736F
:101DD300D503120D6176D503120D6179D503120D6A
:101DE3006111D603120D61008003120D612E800371
:101DF300120D61798103120D61F78103120D617375
:101E03008203120D61DC8203120D611F8303120D25
:101E130061A88303120D614E8403120D61DA8403FA
:101E2300120D611C8503120D61658903120D61E5B5
:101E33008A03120D61C38B03120D61F28B03120D22
:101E430061248E03120D61A49003120D615D910351
:101E5300120D617A9203120D61D19503120D61E1A6
:101E63009503120D614E9703120D61DA9703120D5C
:101E7300610A9903120D61F69903120D61619A03C8
:101E8300120D61449B03120D61DC9B03120D6196DD
:101E93009C03120D61089D03120D61A49D03120D95
:101EA30061149E03120D61F8A003120D61CFA1030B
:101EB300120D613CA203120D61B9A303120D6183DC
:101EC300A403120D61F3A403120D61F7A503120D10
:101ED3006145A703120D6158A803120D61F1A80310
:101EE300120D61B7A903120D6180DF03120D610E9C
:101EF300E003120D6162E003120D61C5E003120DF0
:101F03006110E103120D6172E103120D61DEE10361
:101F1300120D6191E203120D61D2E203120D61EE23
:101F2300E203120D6161E303120D61A7E303120DD6
:101F330061CEE303120D6116E403120D61FAE403AB
:101F4300120D610FE603120D6100E703120D6184A8
:101F5300E703120D61C39704120D61F49704120D88
:101F630061AE9804120D61149904120D61A29904D3
:101F7300120D614A7E00120D61F4A804120D610571
:101F8300A904120D61A5A904120D6118FE02120D18
:101F93006126FE02120D61DDFF03120D61B7AC0471
:101FA300120D61C7AC04120D61D9AC04120D612D81
:101FB300AD04120D6100A704120D6185A704120D73
:101FC30061E9A704120D61F07F00120D61EFFB03BD
:101FD300120D61FDFB03120D6177FC03120D615BB2
:101FE300FD03120D6114FF03120D6179FF03120D3E
:101FF30061CAFF03120D61F87F00120D6100FE013B
:10200300120D6122FE01120D6172FF01120D61F6C4
:10201300FF01120D61A9E703120D6115E803120D0B
:1020230061DCE803120D61E6E903120D61C8EB03FD
:10203300120D6123EC03120D6178EC03120D61891B
:10204300EC03120D619BEC03120D6105ED03120D00
:102053006119ED03120D6124ED03120D6132ED03DD
:10206300120D6144ED03120D6134F703120D618902
:10207300F703120D6185F903120D61B7F903120D10
:1020830061D9F903120D61F2F903120D610BFA0321
:10209300120D6115FB03120D61B0FB03120D61C933
:1020A3009E04120D61ED9E04120D61069F04120D34
:1020B30061399F04120D616A9F04120D61989F0498
:1020C300120D61A29F04120D6104A004120D61138D
:1020D300A004120D611DA004120D612AA004120DAB
:1020E30061B19204120D61D79204120D611493042D
:1020F300120D61239304120D61429304120D61AA20
:102103009304120D61B39304120D61129404120D22
:1021130061369404120D61F59404120D6102950465
:10212300120D61139504120D6139AD04120D615640
:10213300AD04120D6190ED03120D61E8EE03120D73
:1021430061F5EE03120D6108EF03120D6127EF0332
:10215300120D613DEF03120D6151EF03120D61C6C4
:10216300EF03120D612BF003120D61B3F003120D97
:10217300613CF103120D6111F203120D6121F203AF
:10218300120D6130F203120D6178AA04120D619CE5
:10219300AA04120D61C4AA04120D61ECAA04120D63
:1021A30061389A04120D615F9A04120D61809A04DA
:1021B300120D61E59A04120D61419504120D615AE5
:1021C3009504120D61669504120D617A9504120D42
:1021D30061989504120D61A29504120D61AC9504EA
:1021E300120D61BF9504120D61219604120D615AFF
:1021F3009604120D61899604120D61D79604120D8F
:1022030061269704120D61419704120D614B9704E7
:10221300120D61729704120D61B89704120D61AA31
:10222300AB04120D61C6AB04120D6129AC04120D8F
:1022330061D67F00120D6129D603120D6153D603B7
:10224300120D616FD603120D6182D603120D6198D0
:10225300D603120D61F5D603120D6128D703120DB3
:102263006169DB03120D618FDC03120D61C2DC03B4
:10227300120D610EDD03120D6150DE03120D617844
:10228300DE03120D618DDE03120D619DDE03120D5F
:1022930061E1DE03120D6142DF03120D6152DF03C0
:1022A300120D6178A104120D6193A104120D61BC9A
:1022B300A104120D61D6A104120D61FBA104120D3C
:1022C300611AA204120D6132A204120D6160A2040C
:1022D300120D617AA204120D61BFA904120D6103EC
:1022E300AA04120D61FC8B04120D61038C04120D00
:1022F300610F8D04120D613F8D04120D61658D0414
:10230300120D61888D04120D61AA8D04120D61E412
:102313008D04120D614A8E04120D61838E04120D19
:1023230061CF8E04120D61FC8E04120D611C8F04AB
:10233300120D6113AB03120D614EAB03120D61EB72
:10234300AB03120D611CAD03120D6180AD03120DC1
:102353006128B103120D61ABA204120D61CDA20479
:10236300120D61C5A304120D61C8A304120D61E52A
:10237300A404120D6157A504120D6195A504120D55
:1023830061D6A504120D61CAB603120D61DAB70353
:10239300120D611EBC03120D61F3BC03120D61AC7F
:1023A300BF03120D61008004120D61228004120D1F
:1023B30061818004120D61048104120D6183840420
:1023C300120D61A28404120D61F18404120D610DDA
:1023D3008504120D613E8504120D614E8504120DB4
:1023E300615B8504120D61688504120D61548604D6
:1023F300120D61928604120D619C8604120D61A96F
:102403008604120D61B98704120D61C48704120D8D
:1024130061D68704120D61DF8704120D61E9870419
:10242300120D6169F203120D61AEF603120D61CA5A
:10243300F603120D6134A004120D6175AD04120D83
:1024430061C5DF02120D6191DF02120D6131DF02FE
:10245300120D61E9DE02120D615BDE02120D614EA7
:10246300DE02120D6148DB02120D61AAD802120DC1
:102473006173D702120D61372D00120D61932C0089
:10248300120D61C7D602120D610DD502120D61093D
:102493002C00120D61A82B00120D61BDD202120D8A
:1024A3006144D202120D61EBD102120D617BD102A4
:1024B300120D6152D102120D6132CF02120D61FE73
:1024C300CE02120D61CBCE02120D61AFCE02120D00
:1024D30061C8CD02120D6180CD02120D61CBCB021A
:1024E300120D614BCB02120D6148CB02120D6149F3
:1024F300CA02120D6117CA02120D6154C902120DEC
:10250300617FC702120D6110C702120D61E2C6029C
:10251300120D61562B00120D61442B00120D61F058
:102523002A00120D61B1E502120D6193E502120D4D
:1025330061DFC602120D61CCC602120D6177C602BD
:10254300120D6166C602120D6151E402120D61584B
:10255300C502120D6122C502120D61D0C402120D13
:102563006171C402120D61AEE302120D61DCF90266
:10257300120D6140C402120D6108C102120D61C83F
:10258300C002120D61BCC002120D611CC002120D0B
:10259300615CBF02120D61D4BC02120D6165BA0207
:1025A300120D6123BA02120D61F7B802120D61AC6C
:1025B300B802120D61EBB702120D61BEB702120D24
:1025C30061F6B602120D61C6B602120D6161E20236
:1025D300120D618CB602120D614D7900000000806E
:1025E300FBE4738F000100E507870001009B1324C0
:1025F3000002007613250002007813260002007AF9
:1026030013270002007C13280001007E1329000118
:10261300007F138400040080138600010084132AC2
:1026230000010085132B00010086132C0001008993
:10263300132D000800D0072E0001008A132F00017C
:10264300008B13300001008C13310001008D133215
:10265300000100D80733000100D907340001008EC0
:102663001336000100DA07380001008F1339000127
:1026730000881383000200991363000100E40764D8
:10268300000100CD076500010087136D000100986C
:10269300136E000200CE07430001009013440002B2
:1026A3000091134500010093134600020094134761
:1026B300000800DC074800010096134B0001009757
:1026C30013040001009C13A10001009F13370001B4
:1026D300009E13880001009D133C000100DB0700EE
:1026E3000000000000000136360101000102010074
:1026F30001030100010401060605020000070100B1
:10270300340801000F090401010D0100FF0E080048
:102713000017020000190100FF1A0100011B01004C
:10272300FE1C0100081D0200001F01000120010022
:1027330001210200002301000F24020000260100F2
:102743000127010008280200FF2A0100072B0102CC
:10275300402C0100002D0100012E0100012F01007A
:10276300FF30010B1C310800003A0100083B010057
:102773000F2F010000030271023001600211027089
:10278300020102020202028002100261023A0041C7
:1027930000630273027202620243020002130238F0
:1027A3000000020002040212020002000200020002
:1027B3000204020402370037003C024402000239DB
:1027C30000000200026502000235028102000205D8
:1027D30002820283020002030071003001600011D3
:1027E30000700031022003500480001000610000DB
:1027F30000140063007300720062004300000013C2
:1028030000060000000000040012000000000000A9
:1028130000000004000400370037003C02440000BD
:10282300000000000000006500000035008100008A
:10283300000500000083000000030471040204602B
:10284300041104700402040204010402041004616C
:102853000400041404630473047204620443040054
:102863000413040604000400040404120400040016
:102873000400040004510464000004000400044440
:10288300040004000400040004650400043504810A
:1028930004640005040004830400040103710301BC
:1028A30003010301030103010322030203010310D4
:1028B30003000300030003000300030003000342BB
:1028C3000300032403060300030003040312032588
:1028D300032303250323030403040300030003006A
:1028E30003440300030003230300036503210035AE
:1028F30003810300030503000300030003010171C7
:1029030001010101011101010131010101010180F5
:1029130001100161013B0014006301730172016244
:102923000143010001130106013D013500040112B9
:10293300010001000100010001040104013301331E
:10294300013C014401320136000001000165010030
:102953000135008101000105018201830100013677
:10296300000100060000000F00000000000000004E
:10297300000000000003FFFF00000403FFFF00004E
:10298300FFFF0FF4010005C4040320000100130B33
:10299300000000000000000003010F01C11306F74F
:1029A3001308F1130B0F141031130A271402C71362
:1029B30005E51307CD130CA3130DB513FF0000009A
:1029C30000A11E13003B1E0100A11E0200051E03F1
:1029D300000B1E0400111E0500171E0600231EFF18
:1029E300FF0000F9172918FF1705182318171811E6
:1029F300182F1835183B1847180B18F317ED170045
:102A0300160F00000B150B020002220F3200000606
:102A13005A6967426565416C6C69616E63653039FB
:102A2300F51807190D19C3171319BD17C917140A78
:102A3300E5D5C5B5A5A5958585756561197F198505
:102A430019671973196D19FD16F716331739172DF1
:102A530017E516000119161816161523030000387A
:102A63003C3E363B3B352B432C00034948424D1833
:102A730017250502303016181920231A1C1E303072
:102A83003017181921301B1D1F300C0E020B040BBD
:102A93000A0708000F1D18411879194D18531849D2
:102AA3001919191F192B1925190204020101010112
:102AB300090209170F1703173F1700BE040A15175A
:102AC30027171500FA06312A0E0004007F00E803D9
:102AD3000C0000000000280008100C0A030809007D
:102AE300040003FF1E1E010C040510050874F612F2
:102AF300081D74FF120E43851882851983E4F0853F
:102B030082088583097808120D9A750801750900F2
:102B13007808120D9A122B257404120DC874010241
:102B230041F2122B2C121BE922EA75F00BA4FAA82E
:102B3300F075F00BEBA428FBEAFCEBFD7A237B009A
:102B430022C082C0838A828B83E0D2E7F0121D3FCA
:102B5300023E02C082C0837900123067126195C0C1
:102B630082C083900504124F1BD083D082C3E09CA4
:102B7300A3E09D500C126869FAA3E0122B87600151
:102B830009023E02FBEA75F00BA4FAA8F075F00BFC
:102B9300EBA428FB900506E02AF8A3E03B8882F526
:102BA30083E0540F2274F712081D8908123067124C
:102BB300310DACF075F00BE9A42CF9900506E02873
:102BC300FEA3E039FF7401650860067402650870AE
:102BD300208A828B831230F91241EC7402650870EB
:102BE3001B122FB812314070138E828F83E4F08052
:102BF3000BEA2403FCEB1230DB1230E7EEFAEFFBB7
:102C030012251902414974F412081D1271907900BA
:102C13008E828F83E06076890A890B8065E50A7569
:102C2300F00BA4FAA8F075F00BE50B122B94704689
:102C3300E50A75F00BA4F8AAF075F00BE50B123159
:102C43001F8E828F83E08508828509831232018576
:102C53000882850983A31241ECEE2403FCEF1230B2
:102C6300E4123FC0125C0FAA08AB091225197901BF
:102C7300900504125624E50A2401F50AE50B3400F5
:102C8300F50B122FC0E50A9AE50B9B409002439681
:102C930074F512081DEAFEEBFF740B121096123F37
:102CA300C5750A01EC4D602BEC1271ACED12619508
:102CB3001241E47901122495E5084509606F8508FE
:102CC30082850983A312719A7902AA08AB09122497
:102CD30095805AE5084509602B12619912486312E1
:102CE3003FC112312A700CEEFAEFFB12248FE9F583
:102CF3000A80CBEE2403FA12306270317903EEFAC4
:102D0300EFFB80CA8E828F83A3E064FE7003A3E08F
:102D1300F4700BEE24030A0A0A123062700CEEFA06
:102D2300EFFB12248FE9F50A8003750A00A90A7FD5
:102D330003020B4374F712081D900504124159EA6C
:102D43004B602FEA75F00BA4FAA8F075F00BEBA417
:102D530028FBEAFEEBFF121B6B900506124159900C
:102D630005061254696012EEFCEFFD7900121ACFCA
:102D73008007900506E4F0A3F002414974F61208B7
:102D83001DE4F508F5097808120D9A900504124F11
:102D93001BEC75F00BA4FCA8F075F00BEDA428FD5B
:102DA3007A237B00121BE37402120DC8E9FE600351
:102DB3001210A90263A874F712081D7E007F008019
:102DC3000AEEFAEFFB12251F1239DE122DD640F15F
:102DD300024149900504124BD3C3EE98EF9922C0E8
:102DE30082C083EC4D600512238180097C087D003D
:102DF3007900121ACF023E0274F612081D7900EA16
:102E03004B6018780088081264DCEB126865600474
:102E13007901780808E8C3940840EA0241F574F799
:102E230012081D74F3120E43ECFEEDFF8518828524
:102E33001983E4F004121096EAF0A3EB1259957487
:102E430003121096AC82AD83EEFAEFFB1210AFEED5
:102E5300FAEFFB1210B502414474F712081D74F324
:102E6300120E43ECFEEDFF851882851983E4F0EA28
:102E7300FCEBFD74031210961231FA7401121096D2
:102E83001241E08E828F831241EC74FE68700374EA
:102E9300FF69600479018002790002414474F712EA
:102EA300081DEAFEEBFF122EFE7014122F098E820C
:102EB3008F83E0F4F88A828B83E058F0122519A9F6
:102EC3000802414974F712081DEAFEEBFF7508007A
:102ED3008E828F83E06022122EFE701D122F098ACC
:102EE300828B83E08F838E82F8E058700CE0F88A3F
:102EF300828B83E048F012251980C4122513E9F56B
:102F03000874016508221271A5123111123053FAA7
:102F1300A3E039FB2274F412081D8A088B097C0094
:102F23007D00122FB81230E71230781271977900B2
:102F3300850882850983A3E064FE7003A3E0F4603F
:102F4300717E007F008062EEFAEF122B876057EEEE
:102F5300FAEFFBEA75F00BA4FAA8F075F00BEBA4FB
:102F630028FB900506E02AF50AA3E03BF50B85084C
:102F730082850983A31258E3850A82850B83A3E024
:102F83006A7003A3E06B701EE50A2403FAE50B12D3
:102F93003063700AE50A2403FCE50B1230E41230B7
:102FA3006C79011261AB1239DE122FC0EE9AEF9BDE
:102FB3004095024396EA24030A0A0AEB2290050489
:102FC300125D82C32274F312081D8A088B098A8258
:102FD3008B83A312719A123067127197750C0012CA
:102FE3002FB812306370547E007F00804912304541
:102FF300FAA3E0398A82F583E0540F603612304534
:10300300F50AA3E039F50BE50A2403FCE50B1230BE
:10301300EE3400FB12237BE964017017850A828575
:103023000B83A3125E43A31241EC12306C750C01A7
:103033001261AB1239DE122DD640B2A90C7F050204
:103043000B43EEF8EFF9E875F00BA4F812305322B6
:10305300AAF075F00BE9A42AF9900506E02822EFFF
:1030630012313A221271ABEB221230781261A6EEC2
:10307300F0A3EFF022E5081271ACE5092274F51212
:10308300081DEAFEEBFF8E828F83A312719A7C00E8
:103093007D00EE24030A0A0AEF1230E7EEFAEFFB93
:1030A300122513E9F50A7401650A70291271A51234
:1030B300310DAAF075F00BE912311F850882F583F3
:1030C3001230F912312A700DE5082403FCE50912C8
:1030D30030DB1230E7022D303400FDEE2403FAEF2B
:1030E300221230EE3400FB1210AF223400FDE5084B
:1030F3002403FAE50922A31230FE2212310222E050
:10310300F8A3E0F98E828F83A322123111223400B7
:10311300F583124BD7E875F00BA4F822123059F55A
:1031230008A3E039F50922E8F0A3E9F0E508240350
:10313300FAE50912313A221231406401223400FBCC
:103143001210B5E92274F312081D74E6120E43122D
:103153007190750C01750800750900750A00750BEF
:1031630000851882851983E4F0EE2403FCEF340014
:10317300FD74031210961231FAE964017023740B83
:103183001210961241E474011210961258E770035C
:10319300A3E0696051851882851983858208858338
:1031A30009740D121096E4123201740E1210961265
:1031B30041EC740D121096AA82AB831210D3E9640A
:1031C30001700B740D12109685820A85830B780AA1
:1031D300120D9AAC08AD09EEFAEFFB12247D7402CE
:1031E300120DC8E9F50CEEFAEFFB1210CDA90C7421
:1031F3001A120DC80230401234CD1210D9221241D6
:1032030054124BD322C082C083780079008003120A
:1032130032F8122FC0E89AE99B5029E8FAE9FBEA51
:1032230075F00BA4FAACF075F00BEBA42CFB900536
:1032330006E02AFCA3E03B8C82F583E0540F70CFB9
:10324300790080027901023E02C082C083902AC5C0
:10325300124C29EC75F012A4FCA8F075F012EDA441
:1032630028FD79FF7AC97B0C121ACF023E0274F74C
:1032730012081DE9FEEAFF7A007B007800790080DE
:1032830028E8FCE9FDEC75F012A4FC85F00875F064
:1032930012EDA4250812370DC39E400AE0FCEFC3CC
:1032A3009C40031238B31232F812370140D3024163
:1032B30049C082C0837800790080031232F8123249
:1032C300EC501F123711F470F2E875F012A4F8AA4B
:1032D300F075F012E9A42AF974C928FA740C39FBC1
:1032E30080047A007B00023E02902AC5123849C34B
:1032F300E89AE99B22E8240108E93400F92274F0F2
:1033030012081D74F3120E438A0A8B0B8C0C8D0D5D
:103313008908EC450D6016AA0CAB0D1211278A0E15
:103323008B0FAE0EAF0FEE4F60030233BF1210FDD3
:103333008A0E8B0FA80EA90FE8FEE9FFE849607C0F
:10334300902AD7123421602274036508600674043E
:10335300650870167A0479031210F7902AD712348D
:103363003840077A007B0002341E902AD51234219C
:10337300601B74016508600674026508700F7A02A9
:1033830079011210F7902AD512343850D685188255
:103393008519837401F0121096125C0FAC0CAD0DFD
:1033A30074031210961234C6740B121096123FCD8A
:1033B3001245CCE4125BF71216498004EE4F604AC3
:1033C300780074FF2508C39404500278048E828F1A
:1033D30083125C0F8E828F83A3A3A3A3E508F0E877
:1033E3008E828F83A3A3A3A3A3125C1712063D129D
:1033F30038608E828F83A3A3A3A3A3A3A3F0123861
:103403005712106B12618F12105F12342640059011
:103413001341E4F012151DEEFAEFFB024BDD125DD2
:103423003149227A0479001210F7902AC512684BA9
:10343300EA98EB992212345175832A7582C5E49375
:10344300C398F8A3E49399F9C3EA98EB9922E49318
:10345300F8740193F92274F212081D74F3120E43E7
:103463008A088B09ECFEEDFF750A00EEFAEFFB12FA
:1034730011278A0C8B0DA80CA90DE849603E8882A0
:103483008983E065087004A3E06509602F88828959
:1034930083A3A3A3A3E0C39405502112603D851821
:1034A300828519837401F0121096126041EEFCEFCD
:1034B300FD74031210961234C6750A01A90A740D1D
:1034C3000256DB1234CD1210E522AA82AB8312100E
:1034D300AF851882851983AA82AB832274F61208FA
:1034E3001D12351B600FA3A3A3A3E014C3940450C0
:1034F300047901800279000241F574F612081D1265
:10350300351B600FA3A3A3A3E014C3940250047953
:1035130001800279000241F51211218A828B83E531
:103523008245832274F612081D12351B600BA3A378
:10353300A3A3E070047901800279000241F5C082FF
:10354300C083EAFCEBFD7A007B00023DFFC082C032
:10355300837C007D00023DFF74F412081D74F31296
:103563000E43EAFEEBFF8C0A8D0BC3EC94F8ED944B
:10357300FF4007EE4F70030236147508007509000B
:10358300802E8518828519837401F0123A06121071
:1035930096123A1460137403121096AC82AD83EE44
:1035A300FAEFFB12237BE97049E50824011237ADDA
:1035B300902AC5E4125D39E50898E509995052E56A
:1035C3000875F012A4F8AAF075F012E509A42AF917
:1035D30012687E60D4EE4F70A974FF650A7004749C
:1035E300FF650B60C41239F6650A7004A3E0650B2E
:1035F30070B7E50875F012A4F508A8F075F012E5A8
:1036030009A428F50974C92508FA740C3509FB8047
:10361300047A007B0002439174F412081D74F312C0
:103623000E437508001211278A0A8B0BAE0AAF0BE3
:10363300EE4F602A851882851983740112414EF872
:10364300A3E0F9740B12109612426F1210C77C128A
:103653007D0079FFEEFAEFFB121ACF7508011234E1
:103663002650099013417401F012151DA908024355
:103673009174F712081DE9FE74FE6A700374FF6B00
:1036830078007900700580521232F8123701504ADF
:10369300E8FCE9FDEC75F012A4FCAFF075F012ED57
:1036A300A42F12370DF460E0E8FCE9FDEC75F0128D
:1036B300A4FC75F012EDA42FFD74C92CF582740CD3
:1036C3003DF583E06A7003A3E06B70BC8009123799
:1036D3001114C3940440171232F81232EC5018EE4E
:1036E30070EC12371164016005E0640370E912396C
:1036F300E7FAA3E0FB80047AFE7BFF024149902AAC
:10370300C5124C2DC3E89CE99D221238E822E8FA41
:10371300E9FBEA75F012A4FAACF075F012EBA42CF5
:10372300FB74CD2AF582740C3BF583E02212113928
:10373300023E02C082C083790180F274F012081D38
:103743008A0A8B0B7A0479011210F78A0C8B0DEA23
:10375300450D603EEAC333FAEB33FB121B6B8A0859
:103763008B09AE08AF09EE4F60237AFE7BFF12117F
:103773003F74FE6A700374FF6B601B8508828509C2
:1037830083124159E50824021237AD80E1750C001C
:1037930080047E007F00850A82850B83E50CF0EEB2
:1037A300FAEFFB024BE2E5082407F508E5093400CC
:1037B300F50922902AC5124C2DC3EA9CEB9D227475
:1037C300F612081DE4F508F5097808120D9A902AF7
:1037D300C5E493F508740193F50974037808120F8F
:1037E300231237F9121BE37402120DC8E9FE6003BA
:1037F3001211510263A8E5082402FCE5093400FD17
:103803007A227B002274F612081D74FE120E438581
:103813001882851983E4F0A31241D8858208858331
:10382300097808120D9A7508027509007808120DB7
:103833009A7C007D007A227B00121BE97404120D2E
:10384300C874020241F2E493FA740193FB22121A40
:10385300C37403221261A0E4F090833022E88E82C5
:103863008F83A3A3A3A3A3A3A3A3123882740112D8
:103873003882A3F0EE24101261A3E4F0A3F0221225
:1038830045D8A3A3A322C082C0837A007B0080040F
:10389300191238B31237B650101238D2C3940550E8
:1038A300F0E970EC1238BC80047A007B00023E021F
:1038B300EA24010AEB3400FB22EA75F012A4FA753C
:1038C300F012EBA428FB74C92AFA740C3BFB22EA1E
:1038D300FCEBFDEC75F012A4FCA8F075F012EDA45E
:1038E300281238E822FD74CD2CF582740C3DF58343
:1038F300E02274F712081D74F3120E437E007F005A
:1039030002399AE50875F017A4F8A9F0126ADFFAEC
:10391300A3E0FBEEF8EFF9E875F012A4F8ACF0754C
:10392300F012E9A42C1239F56A7003A3E06B603F2F
:10393300E50875F017A4F8AAF0EA126ADEF8A3E026
:10394300F97401121096E0687003A3E0696020E542
:103953000875F017A4F8EAF9744528FC740E39FDCC
:103963007403121096AA82AB8312237BE96014E5D9
:103973000875F017A4F8A9F0744328FA740E39FBFC
:103983001216550508902ADCE493F8E508C398500D
:10399300030239061239DE902AC5126E255039EE1C
:1039A300F8EFF91239E7F47003A3E0F460E6851841
:1039B300828519837401F0EEF8EFF9E875F012A42B
:1039C300F875F012E9A42AF9123A06121096123A7F
:1039D3001460C175080080AD024144EE24010EEF6E
:1039E3003400FF22E875F012A4F8AAF075F012E98A
:1039F300A42AF91239FA2274C928F582740C39F50C
:103A030083E02274CB28F582740C39124BD1740BEA
:103A130022E8F0A3E91242771210DFE922C082C044
:103A23008390050D74DFF0A37413F090050F74D920
:103A3300F0A37413F090051374E1F0A37411F00272
:103A43003E02C082C08390051174D3F0A37413F0B7
:103A5300023E0274F712081DEAFEEBFF900547E0F1
:103A63006408601BE0640460168E828F83E0540355
:103A730064017048123FC01246D8E06406703D8E60
:103A8300828F83A3A3E064FE7003A3E0F4602D8E12
:103A9300828F83A3A31241E0900538E0687003A3EB
:103AA300E069700BEE2415F582EF12686560081269
:103AB300149FE9F50880081214A580F67508C2EE74
:103AC300FAEFFB121B71022EC274F412081D8A084E
:103AD3008B098A828B83E0F8A3E0FAE82AFAE434BC
:103AE30000FB121B6B8A0A8B0BAE0AAF0BEE4F6007
:103AF30063850882850983E0FC7D007900121ACF73
:103B03008E828F83A3A312719A1214E18E828F8304
:103B1300A3A3A3A3124159850882850983E0F8EE84
:103B230028F8EF34001241E8850882850983A3E071
:103B3300C0E0EE240D126192D0E0F01214F3EE24F3
:103B43000E126192E9125844E0C0E0EE24111261B2
:103B530092D0E0F0EEFAEFFB02439674F412081DE4
:103B630074EB120E438A088B098C0A8D0BE9FE90C5
:103B73000547E064046005E06408700479C2802EA0
:103B8300A37808121007EE90054E123E401210075C
:103B93007405121096E9F074041210967401F0740F
:103BA30007121096E4F09005477402123D9D7415B8
:103BB30002439374F612081D74EB120E43EAFEEBF4
:103BC300FF1254666003023C5A7A077B00121B6B98
:103BD30090050912415912546660788E828F8312C0
:103BE300106B90050A1246DB12105F12705EC0E084
:103BF300123C66D0E0F0EE2405FAEF3400FB8A08AD
:103C03008B098A82F583E0C0E0123C61D0E0124365
:103C13008DE0C0E0123C61A3D0E01241CD12106BE5
:103C230085188285198312105F88828983E0C0E03A
:103C33007405121096D0E0F0850882850983E0C0F0
:103C4300E07404121096D0E0F07407121096123D3F
:103C53009C800679108002790174150241F2123CAE
:103C630066A322900509E0FAA3E0F5838A82A3A361
:103C7300A3A322C082C083125466600D900509126B
:103C83005D70900509E4F0A3F01214091215F50212
:103C93003E0274F012081D74EB120E43ECFEEDFFAE
:103CA30089087425121096780C1210347429121096
:103CB30096E0F9742A121096E0FC742B121096E029
:103CC300FD740F697005740F6C601290138DE064BE
:103CD30002700579C1023D97E9C39C40F6900548FF
:103CE300780C121007E50890054EF0E990054CF0AA
:103CF300ECA3F0ED90054FF074FF6A700374FF6B53
:103D0300701D901399E0F47003A3E0F47005121A88
:103D1300DB800C901399124121E8F0A3E98007900E
:103D23000545EAF0A3EBF0EE4F6017EEFAEFFB1256
:103D330016B5E96401700BEEFCEFFD7A597B0512B1
:103D43002381900538E4F0A3F090053BF0A3F090B5
:103D53000558F090138DE06402700890054C740FC1
:103D6300F0A3F09005477405F014121096E4F09058
:103D7300054812106B85188285198312105F900510
:103D83004EE0C0E07405121096D0E0F074071210F4
:103D930096123D9C7415024BDFE41242771223E71F
:103DA30022C082C083900508E07003121E351211F1
:103DB30099804CC082C083900508E0901340700442
:103DC300E4F0802D7401F0900508E0F460237C4159
:103DD300E0C394415002E0FCECF8E0C398F0EC75CA
:103DE300F0E8A4CCA8F075F003A428FD7A80124C67
:103DF300357A407B1379411223CF800312112DD0E2
:103E030083D082020D5E74F412081D74EB120E430C
:103E13008A088B098C0A8D0B9005477401123E406A
:103E23001210077405121096E9F0740412109674B8
:103E330003F07407121096123D9C023BB11241D855
:103E430078082274F712081D7C011211AB02414954
:103E530074F212081D74FC120E43E9851882851949
:103E630083F0EAFEEBFF8C0A900545124F1B1213F9
:103E7300FD8A088B09EA4509700579CA023FBB8AA6
:103E8300828B83A3A3A3A3A3A3A3E064FE7003A3D2
:103E9300E0F4700579C3023FBB9005451258E31265
:103EA300165B850882850983A3A3A3A3A3A3A3A366
:103EB300A3A3E004900558124128740212109674CB
:103EC30002F014121096AA82AB831215598A0C8B36
:103ED3000DAE0CAF0DEE4F7003023FB2123FC01296
:103EE30048577406F0A3A882A983900532125DADEA
:103EF300124BB0F0EE24131261927401125BEF7453
:103F030040F0A3E412583DA3A3123FCD1241ECEEBF
:103F13002411126192E50AF0EEFAEFFB12116FE938
:103F2300FE6003023FB49005477409F01237A9AA53
:103F330008FB794B1223CF85088285098312411A26
:103F43001241EC90053AE0F8851882851983E06800
:103F5300600CE090053A12427379E11223CF90137B
:103F63007A1241E090137CE0687003A3E069601A61
:103F730090050B1241EC90137C1258E312150B9031
:103F8300137C124F1B7A01124C357A007B04900587
:103F930092E0F9121C3190137C123FC57402780829
:103FA300120F23AC08AD09FA7B04124C3780027E52
:103FB300109006DAE4F0EEF974040256DBEE1261B7
:103FC300A122E0F508A3E0F50922123FD122123124
:103FD30002A32274F512081D74E2120E438518829F
:103FE300851983ECF0A3EDF0EAFEEBFF8908742951
:103FF300121096E0F509742C121096E0F50A90055C
:1040030047E064046005E06408700579C202411268
:10401300742A121096E064FE7003A3E0F47005792D
:10402300C30241129005477403124273795012235D
:10403300CF742A121096AA82AB83794B1223CF85B1
:1040430018828519831241211241ECE50890053A43
:10405300F0742A12109612411A1241ECE5099005E8
:104063003212412874CE55094480C0E074121210F4
:1040730096D0E0F090139BE0600464017008740133
:10408300250A900558F0740F1210967402F0742AE2
:104093001210961241E07407121096E8F0A3E91289
:1040A300415F74101210961241EC7405121096E5DC
:1040B30008F0741B121096E4F090054D740FF07A1B
:1040C3004D7B0579541223CF90054C740FF07A4C35
:1040D3007B0579471223CF90054CE0C3940F5023FF
:1040E3007405121096E0C0E07402121096D0E0F04E
:1040F30074041210967401F004121096AA82AB8312
:104103001223F37405121096AA82AB831223D5747B
:104113001E120DC8022D32124BD390053B22124BB7
:10412300D390054522F0EEFCEFFD7A597B0512236F
:10413300812274F712081DEB90054FF01213EB80E8
:1041430005740D120DC87F01020B43124154A3E005
:10415300221241CDA322EAF0A3EBF0221241D3F8BD
:10416300A3E0F92274F712081D74F8120E43EAFE55
:10417300EBFF7900900547E0640870448518828559
:10418300198374FDF0A374FFF01214DB7402121090
:10419300961241597405121096E4124154E0C0E09E
:1041A3007404121096D0E01241C8C0E074061210D5
:1041B30096D0E0F07407121096E412427312153B86
:1041C30074080241461241CDE022F08E828F832291
:1041D3001241D8E022F085188285198322124BD32D
:1041E30022E0F8A3E0F91261A0E8F0A3E9F02212BB
:1041F3000DC87F02020B43C082C0839005197477F8
:10420300F0A37412F09005BF7495F0A37415F090A9
:10421300051D74ADF0A37412F090051F7477F0A31D
:104223007412F090052174B3F0A37412F0023E02ED
:1042330074F412081D74F9120E438A088B098C0A50
:104243008D0B851882851983780812100774041260
:104253001096E9F07405121096E4F07406121096A5
:10426300E41242731211817407024393E8F0A3E945
:10427300124277221241D8AA82AB832274F4120825
:104283001D8A088B098A828B831261AEEE4F7003FD
:1042930002438B9004E212546960158A828B83A3D4
:1042A300A3E0F9EEFAEFFB9004E31246DB1225E4F8
:1042B3008E828F83A3A3A3A3A3A3A3A3A3E06402D8
:1042C30070748E828F83A3A3A3A3A3A3E05402706D
:1042D3000302435D850882850983A3A3E064E96043
:1042E300798E828F83A3A3A3A3A3A3A3A3A3A3E0F2
:1042F3007014901390E0048E828F83A3A3A3A3A3CF
:10430300A3A3A3A3A3F08E828F83A3A3A3A3A3A397
:10431300A3A3A3A3E01412438DA3A3A37404F09057
:104323001391125BE9E8F0A3E9126CC28B0BEA4527
:104333000B70031266A08E828F83A3A3A3A3A3A3F0
:10434300A3A3A3E0640260128E828F83A3A3A3A31B
:10435300A3A3A3A3A3E06406702E8E828F83A3A3DB
:10436300A3A3A3A3E0A2E0501F850882850983A32A
:10437300A3E0F9EEFAEFFB1224C58E828F83A3A389
:10438300A3A3A3A3E054FEF080091245D422740D25
:10439300120DC87F04020B4374EC12081D74DD1266
:1043A3000E43EAFEEBFF8C088D09743712109678E2
:1043B3000C121034750A007405121096AC82AD838A
:1043C300121A6F7412121096E07008741512109678
:1043D300E060207405121096E0A2E6501E8E828FD4
:1043E30083A3A3A3A3A3A3A3A3A31258E3121571A7
:1043F300E9600879031223690245BA74051210961D
:10440300E0540C64047005750B018003750B00E028
:10441300A2E55035750A01E50BA2E0402C1214E128
:104423008A108B11A810A911123FC0E0687003A372
:10443300E069601574051210961271A11258DF120B
:1044430024D1E96004790480AC7405121096E0A2CB
:10445300E650227406121096E05403701874051285
:104463001096E0540C640C600CE0540C6408600576
:1044730075100180037510007405121096E0540343
:10448300F8740268700C1271A11258DF12254902E8
:1044930045BA740168703AE510A2E050031245C2B0
:1044A3007405121096A882A9837403121096E8F07B
:1044B300A3E9124BC78518828519831245CCE0C046
:1044C300E07402121096D0E01242731225B5024531
:1044D300BAE860030245BA90052FE0640170108EBC
:1044E300828F83A3A3A3A3A3A3E07003024448740E
:1044F300221210967402124BC7741A1210961241AC
:10450300ECE510A2E0500874051210961245C2E5BE
:104513000BA2E0506AEE240FF582EF126865C0E04B
:104523007417121096D0E0F09004E41254697003EB
:104533000245BA1214E18A128B13A812A913741A32
:10454300121096E0687003A3E069706B780C120D8B
:1045530092780A120D9E7808120D9AA910740C1203
:104563001096AC82AD837421121096AA82AB83900D
:1045730004E41246D81225E47407120DC880387873
:104583000C120D92780A120D9E7808120D9A90055E
:1045930045120C09EE2412F582EF1265937423126F
:1045A3001096AC82AD83740E121096AA82AB83125E
:1045B30024B97409120DC87423120DC8026C8D122C
:1045C30071A1125D7E1225CD22E8F0A3E91245D434
:1045D300221245D822F08E828F83A3A3A3A3A3A381
:1045E3002274F712081D121CEB02414974F71208DA
:1045F3001D121CF702414974F712081D121D030214
:104603004149C082C083121CFD023E0274F71208A6
:104613001D121D0902414974F712081D7409121075
:1046230096E0F5087808120D9E121D1574010241DB
:1046330046C082C083121D21023E02C082C0831283
:104643001D27023E0274F712081D121D2D02414957
:1046530074F712081D121D3902414974F712081D1F
:10466300EAFEEBFF890874016508701479001212E1
:10467300EF902AE7E493FC7900EEFAEFFB12126560
:1046830002414974F412081D74F9120E43E9FE8ABB
:10469300088B098C0A8D0B74131210961258E39031
:1046A300072C1254696027EE851882851983F074EC
:1046B300011210967808121007EAF8EBF974051244
:1046C300109612426F90072C1246D81225E402422C
:1046D3006AFB90051BE0F8A3E0F583888222C08281
:1046E300C083121D69023E0274F712081D90134322
:1046F300E0F97E00800B126851540D6401700119BA
:104703000E1248E55003E970ED02414974F71208AF
:104713001D901344E0F97E00800B126851548D64A0
:10472300817001190E1248E55003E970ED02414909
:1047330074F212081D890BE975F006A4240CF50820
:10474300E5F01237B18A0CE508250CFAE5093400C7
:10475300FB121B6B8A0C8B0DAE0CAF0DEE4F60275B
:10476300AC08AD097900121ACF123FC0E50BF0EE89
:104773002508F8EF3509F98E828F83A3A3A3A3A39A
:10478300A3A3A3A31241ECEEFAEFFB0256DE74F6E9
:1047930012081DEAFEEBFF121241901342E0F8E902
:1047A300C39840099005151258E3121247EE2402EC
:1047B300F8EF125EF3900517125DAD900517E00454
:1047C300F0EEFAEFFB12124D850882850983E002B1
:1047D30063A9C082C083790090051580010912582E
:1047E300E38A828B83E582458370F2023E0274F78B
:1047F30012081DEAFEEBFFEE4F60569005151254AA
:1048030069604E888289837A007B00EE658270033B
:10481300EF6583600FAA82AB83124857E582458315
:10482300602F80E7900515124863687002EF698E68
:10483300828F8370081241E09005158003126C9FEC
:104843001241ECEEFAEFFB122585EEFAEFFB121B99
:104853007102414912485B22124BD7888289832215
:10486300124BD3EE22C082C0839005158004888248
:104873008983125469600B88828983124F1BEC4D24
:1048830070EC8A828B83E4F0A3F0E84960068882A7
:1048930089838003900515124159023E0274F71271
:1048A300081D90051580048A828B831248E04B60B3
:1048B300257E0080010E1248E550ECEE75F006A44B
:1048C300FCADF0EA2CFCEB3DFDEC2410F582ED127F
:1048D300493570E180047A007B00024149125D8210
:1048E300EA2212493EEEC3982274F712081D7D0096
:1048F30080010D12493AEDC3985034ED75F006A4CA
:10490300FEA8F0E8FFEA2EFEEB3FFFEE2410F5824F
:10491300EF12493570DCED75F006A4FEE8FFEA2ED0
:10492300FAEB3FFBEA2411F582EB1268654CF002C7
:104933004149126871692212493E221271ABEB346C
:1049430000F583E0F82274F612081D1213677A004B
:104953007B008025EAF8EBF9E875F006A4F8ACF0E3
:1049630075F006E9A42C125D5712706CA3E4125E75
:104973004DF0A31270721271E9902AD312343040B1
:10498300D37A007B00801C8A088B09740378081291
:104993000F2312580BA374FEF0A304125C2DA3E49F
:1049A3001271E9902ADB1249E840DC7A007B00802F
:1049B3001D8A088B0974037808120F23746B126421
:1049C300DD7411126D2474FEF0A3041271E9902AB0
:1049D300E11249E840DB902AE9E493900523F012C1
:1049E30049F20241F5E493F8C3EA98EB9400227C80
:1049F300E87D037A107B00900592E0F9121C2B22CC
:104A030074F012081D74F5120E438A088B09890A83
:104A13008C0BE9A2E050147508FC7509FFA2E15064
:104A230005D2E4024AC5D2E3024AC51256CA70034C
:104A3300A3E06970057900024B92AC0A7902AA08D7
:104A4300AB09121343E960EDE50AF50C780C120D7E
:104A53009E79027CFE7DFFAA08AB09125445120D14
:104A6300C8E96003024B90E50AC2E5F50A900585A3
:104A7300E07051E50AA2E6404B7403121096AC8233
:104A8300AD83AA08AB091210BBE97032124D668AD6
:104A93000C8B0DA80CA90DE8FEE9FFE8496025EE93
:104AA30024020A0AEF123140601AEE2402FCEF34AA
:104AB30000FD7403121096AA82AB83122381E50AC8
:104AC300D2E5F50A900518E0F50C900538E0F50EEF
:104AD300A3E0F50F780E120D9A7D017C0090051866
:104AE300E0F9AA0EAB0F1212FB7402120DC8E9F81B
:104AF300900518E004F0E86003024B90E50AA2E594
:104B03005004740E80027406C0E07401121096D033
:104B1300E01261BF8A0E8B0FAE0EAF0FEE4F6069CE
:104B2300124BB0124BC7888289837401F074785595
:104B33000AA31271B1E50C1271B1A3E508F0E509FE
:104B4300124B9FE4F0E50AA2E5500F74031210968E
:104B5300AC82AD83E82406124B968E828F83A3A387
:104B630074FDF0A374FFF0E50B6015902AE8E4935D
:104B7300F8E50BC3985009EE2413126192E50BF08C
:104B8300EEFAEFFB12116F80067910800279C77479
:104B93000B8049FAE93400FB12238122888289833E
:104BA300A3A3A3A3124BAB22125F26A322EE2417C7
:104BB3001261A37401F01214DBEE241A1261A3EA4A
:104BC300F0A3EB22F01271A53400124BD122F5832E
:104BD300124BD722E0F8A3E0F922740D120DC87F1F
:104BE30008020B4374F612081D7A007B101266AD9F
:104BF30060089005A47401F080299007DAE064014D
:104C030090138E7006E0FC79018004E0FC79037A4E
:104C1300007B00121265902AD1124C297A007B1076
:104C2300124C370241F5124C2D22E493FC7401938C
:104C3300FD227B00900592E0F9121C252274EC12F0
:104C4300081D8A088B098C0C8D0D890E74141210A3
:104C5300961256247416121096E0F510A3E0F5117F
:104C6300121571E960077AFF7BFF024D6390138D84
:104C7300E064026003024D567900AA08AB091213DF
:104C830049A90E12133D8A128B13AE12AF13EE4FC6
:104C93007003024D3E8E828F83A3A3A3A3A3E0647C
:104CA300018E828F83A3A370691258E38E828F8350
:104CB300A3A3A3A3A3A3E054186043902AE6E49319
:104CC3008E828F83A3A3A3A3F0EA650C7003EB6525
:104CD3000D6014EA650A7003EB650B600AEA651060
:104CE3007003EB6511701F7810120D9AAC0AAD0BAF
:104CF300AA0CAB0D1216737402120DC8800890052E
:104D030037126697A3F074FE6A700374FF6B601D1D
:104D1300804EA3A3A3E0640360298E828F83A3A3A1
:104D2300A3A3A3E0640470057AFE024C6B8E828F0A
:104D330083A3A3A3A3A3E064027008900584E064A3
:104D4300027010124D668B0BEA450B6006AA08AB86
:104D530009800DAA08AB099005191246D81225E45B
:104D6300026C8D90054512544B1216372274F712BC
:104D7300081DEAFEEBFF12110FE9700AEEFAEFFBD2
:104D830012111BE96006EEFAEFFB80047AFE7BFF4B
:104D930002414974F012081D8A0A8B0B8C0E8D0F89
:104DA3008909750800121571E979006003024F0D36
:104DB300AA0AAB0B121349A90912133D8A0C8B0DD6
:104DC300AE0CAF0DEE4F60198E828F83A3A3A3A306
:104DD300A3E064027055900584E064027003024FFF
:104DE3000BAA0AAB0B90051F1246D81225E4121129
:104DF300218A0C8B0DA80CA90DE8497003024F0BF7
:104E030088828983A3A3A3A3A3E0A2E04003024F64
:104E13000B750C01A2E150687901AC0AAD0BAA0E27
:104E2300AB0F121295E97064024F0B8E828F83A32E
:104E3300A3A3A3A3E064037005750C0280528E82C2
:104E43008F83A3A3A3A3A3E064016003024F0B908A
:104E53000545124F1B8E828F831252708A0C8B0D65
:104E6300A80CA90DE84960D1902ADFE493FA88825F
:104E73008983E0C39A50C2A3E06003024F0B80B959
:104E830088828983A3A3A3A3A3D2E1F0EE4F603A60
:104E93008E828F83A3A3A3A3A3A3E05418602B75CF
:104EA30008018E828F83A3A3120C09750CFE750D66
:104EB300FF780C120D9A7900AC0AAD0BAA0EAB0F5A
:104EC30012135B7404120DC8803E900538E0650E22
:104ED3007004A3E0650F7014902AE7E493FCA9091A
:104EE300AA0AAB0B121265750801801CA90CAC0A47
:104EF300AD0BAA0EAB0F121295E9700C750801A940
:104F030009AA0AAB0B1212EFA908024BE2E50C2423
:104F130015F582E50D1261A6125C032274EA1208EC
:104F23001D74F0120E438A0C8B0D8C088D097426A8
:104F3300121096E0F514A3E0F5157512069005C559
:104F43001254696023900545124F1BAA08AB09123E
:104F530016618A108B11EA4511600D8A828B83A337
:104F6300E070057900025258E50C241DF50EE50D9D
:104F73003400F50F850E82125455F5138882898308
:104F8300A3A3A3E0FA88828983A3A3A3A3E0F9EAF6
:104F93002400FEE439FFAA08AB091212F5850E823C
:104FA300850F83125293E029F50BE50AA2E550031E
:104FB30075120E7487550A70177418550A641860B1
:104FC3000FE50C2417F582E50D126865651260077D
:104FD3007901122369808C530A78C3EE94F8EF9415
:104FE300FF501D7900EEFAEFFB12526260128882C5
:104FF3008983A3A3A3A3A3A3E054186003024F666A
:105003007808120D9A7D00125286120DC8E9F874C1
:1050130003687003024F66E860030250D1741855A9
:105023000A7003025186E50AD2E0F50AA2E45004AD
:10503300D2E1F50AA90A1258DC125262605388823F
:105043008983A3A3A3A3A3A3E054186044888289FC
:1050530083A3A3A3A3A3E064017036E51045116005
:1050630030900545124F1B888289831252708A0E35
:105073008B0FA80EA90FE849601788828983A3E0E4
:10508300600F851082851183A31263B45003024F0E
:1050930066E50AF50E780E120D9E125279120DC8AE
:1050A300E9702B7C007D0085148285158374FFF0E5
:1050B300A3F0850C82850D83A3A3A3A3A3A3A3A31A
:1050C300E06003124F10A90B1258DC121D1B85144C
:1050D30082851583E0F47003A3E0F46039900584BE
:1050E300E064027003024F66125615E0FAA3E01261
:1050F30046D41225E4EA65087003EB6509600302F0
:105103004F66EEFAEF1246D41225E4851482851514
:1051130083EAF0A3EBF07808120D9A7D0112528610
:10512300120DC8A90AEEFAEFFB1213498A088B097C
:10513300A808A909900538E0687003A3E069600333
:10514300025249EEFAEFFB1211218A088B09A808D3
:10515300A909E849606E88828983A3A3A3A3E064B5
:1051630001600D88828983A3A3A3A3E06402705422
:10517300851882851983AC82AD83EEFAEFFB12109A
:10518300BB8055900531E0600FE50AF50E780E12ED
:105193000D9E125279120DC8E50AF50E780E120D06
:1051A3009E79027CFE7DFFEEFAEFFB125445120D51
:1051B300C8E960030250D185148285158374FFF01A
:1051C300A30251181214DBEAFCEBFD851882851942
:1051D30083AA82AB83122381850C82850D83A3A3CB
:1051E300A3A3A3A3A3A3E06401700F124F10740839
:1051F300121096AA82AB8312238112541F12602BC2
:105203004430F5087808120D9E74011210968582B9
:10521300088583097808120D9A740B1210968582FB
:10522300088583097808120D9AE513F508780812A2
:105233000D9E7900EEFCEFFD1258DC12128F7406FE
:10524300120DC8024F6612541F126195125293E554
:105253000BF01214F37410120DC87F0E020B4312DD
:10526300133D8A0E8B0FA80EA90FE84922A3A312A0
:105273005D82121661227901AC08AD09125D7712C5
:10528300544522AC0BA913125D771212FB74022250
:10529300126033A3A3A3A32274F012081D74F012A7
:1052A3000E438A0C8B0DECFAEDFB750F089005C5C8
:1052B30012546960141263AD8A828B83E58245833D
:1052C3006007A3E0700302541A12541F34001254EF
:1052D30055F50B88828983125428E0FBEC2400FEE9
:1052E300E43BFF88828983A3A3125428A3A3E0FB92
:1052F300ECF508E43BF50988828983A3A3A3A3A360
:10530300A3A3E0F50EE50AA2E45003750F10A2E58E
:1053130050067408250FF50F748F550A700FE50CAE
:105323002417F582E50D126865650F60087901128F
:10533300236902541A530A707800E50AA2E4502242
:1053430012541F1268652408FCA3E03400FD74089E
:10535300121096AA82AB831223817808E50AC2E46D
:10536300F50AE50AA2E5502812541F12686528F8C9
:10537300A3E03400F9E82408FCE93400FD85188231
:10538300851983AA82AB83122381E50AC2E5F50A54
:10539300AC0EA90BEEFAEFFB121301E9F8740368E4
:1053A3006075900538E06E7003A3E06F605EE8708F
:1053B30054E50AF50F780F120D9E125436120DC8DC
:1053C300E97054780A120D9E740112109685820CAE
:1053D30085830D780C120D9A740B12109685820C2E
:1053E30085830D780C120D9AE50BF50A780A120DD8
:1053F3009EA90EAC08AD09EEFAEFFB12128F7406EC
:10540300120DC88012740468700D80B7780A120DEB
:105413009E125436120DC87410024BDFE50C241D86
:10542300F582E50D22A3A3A3E0FC88828983A3A3CD
:10543300A3A322790112561C1261A612544B1254D3
:1054430045221212B9740122E0FCA3E0FDAA08ABC5
:105453000922F58312485BA3E0F50A88828983A3B6
:10546300A3E022900509125DDE2274E812081D7480
:10547300F5120E43EAFEEBFF8C088D0989147423A1
:10548300121096E0F50F7424121096E0F512A3E0C3
:10549300F5137426121096E0F516A3E0F517742899
:1054A300121096E0F50EA90F1213078A108B1174D0
:1054B300011210967408F0E50EA2E450037410F084
:1054C300E50EA2E55004E02408F0851882851983CF
:1054D300AA82AB831215598A0C8B0DEA450D700312
:1054E3000255FCEA2417F582EB12560E1214DBE583
:1054F3000C241AF582E50D126195124159740312B9
:105503001096AC82AD83AA10AB111210BBE9601DDB
:105513001256067403121096A882A983E50C241868
:10552300F582E50D126195E8F0A3E98024E50EA26A
:10553300E4501FE5106E7003E5116F7015125606E7
:10554300E50C2418F582E50D126195E512F0A3E54B
:1055530013F0125615125624850A82F5837402F04D
:10556300A3E50E12562CE50FF0EE850A82850B8318
:10557300A3A3A3F0EF850A82850B83A3A3A3A3129E
:10558300562CA3A3A3E508F0E509850A82850B83BE
:10559300A3A3A3A3A3A3F0AA10AB111212F5E925A9
:1055A30014850A82850B83A3A3A3A3A3A3A3F075E6
:1055B3000800E50EA2E45011AC12AD13E50A24086D
:1055C300FAE50B124B98750808E50EA2E55014ACEA
:1055D30016AD17E50A2508F8E50B3400F9E82408A9
:1055E300124B96850C82850D83A3A3E510F0A3E5EA
:1055F30011F0AA0CAB0D12116F740B120DC87F10B2
:10560300020B43E50C2416F582E50D1261A6740125
:10561300F02212561C1261A622E50C1271ACE50DA4
:1056230022E0F50AA3E0F50B22F0850A82850B83BD
:10563300A3A32274F212081D8A088B09ECFEEDFF66
:10564300890A79001256CA7003A3E06970047901CC
:105653008073750B01900538E065087004A3E0655D
:1056630009601F750B00780B120D9EA90AEEFCEF63
:10567300FDAA08AB091215AD7401120DC8E9F50BAB
:1056830080417900EEFAEFFB12133DEA4B602B8A5F
:10569300828B83A3A3A3A3A3A3E05418601C750860
:1056A300FE7509FF7808120D9A8A828B83A3A312D1
:1056B3000C09126FC1120DC880097901EEFAEFFBD4
:1056C300121217A90B80141213498A0C8B0DA80C04
:1056D300A90D900538E06822120DC87F06020B431E
:1056E30074F412081D7508B375090F7A10126CC98A
:1056F3008B0BEA450B70031249F2900523E014F07B
:10570300700C902AE9E493900523F01213557E0060
:105713007F00806C850882850983A3A3A3A3E0602F
:1057230059F46056E5082404F582E5091266917080
:1057330049850882850983A3A3A3A3A3E064037017
:10574300197902850882850983124F1B8508828592
:105753000983A3A31258E31212958508828509834E
:10576300A3A3A3A3A3E06401601085088285098332
:1057730074FEF0A30412583DE4F01239DE1237A987
:10578300902AD9126E25408C7E007F008039121436
:10579300818E088F0974037808120F23742B250850
:1057A300FC74113509FD7AA17B1212146FEA4B7058
:1057B300DD8E088F0974037808120F2312580B1219
:1057C300706CE4F01239DE902ADBE493F8C3EE98B0
:1057D300EF9400501B8E088F0974037808120F236F
:1057E300125813E82407F582E912669170D680A156
:1057F3007E007F00800A12581E600214F01239DE08
:10580300126E2240F1024396125813888289832232
:10581300742B2508F874113509F922EEF8EFF9E82D
:1058230075F006A4F8AAF075F006E9A42AF974CB7A
:1058330028F582741039F583E022125844A3A3A3F8
:1058430022F0850882850983A3A32274F712081D19
:1058530074E1120E43ECFEEDFF750800EE4F60722B
:105863008A828B83E0241C1266C212546960638AA5
:10587300828B831258E3851882851983AC82AD83AA
:10588300EA241BF582EB126593EA241CF582EB12E2
:1058930058DF1214C3740B1210961258E77003A347
:1058A300E069702E7402121096E064017024741D76
:1058B3001210961246D8E064017017741D121096E8
:1058C3001246DAA3A3E0F88E828F83E06870037533
:1058D3000801A908741F02414612561C3400F583BF
:1058E300125D82221230FEE0682274F412081DE970
:1058F3007024790090051D1246D81225E48A0A8B7C
:105903000BAE0AAF0B74FE6E700374FF6F701A90C8
:105913002AE2E4936013790190051D1246D81225FB
:10592300E48A0A8B0BAE0AAF0B12151D023B5774A8
:10593300F612081D74F3120E43121ADB8A088B0940
:10594300AE08AF09900538E06E7003A3E06F60E91D
:105953001214E7EA6E7002EB6F60DEEEFAEFFB12F1
:105963001571E970D4EE4F60D0851882851983E4F0
:10597300F004121096EEF0A3EF125995E970BA7481
:10598300FE6E700374FF6F60B0EEFAEFFB740D02EE
:1059930041F21242771210D322C082C08312151D26
:1059A300023E027F0A020B4374F212081DEAFEEB69
:1059B300FF8C0A8D0B8908740E121096E0F509749A
:1059C300FC6E700374FF6F700579000256DE790078
:1059D3001213498A0C8B0DAE0CAF0D900538E06E97
:1059E3007003A3E06F7006E509A2E650DCA9091273
:1059F3006EAF706179007AFE7BFF126EAF705674E2
:105A03001855097003025AE27800790080031232B4
:105A1300F8902AD91232EF4003025AE2E8FAE9FB7E
:105A2300EA75F007A4FAACF075F007EBA42CFB744D
:105A3300B92AF582740F3BF583E0541870D0E875EA
:105A4300F007A4F8AAF075F007E9A42AF974B328BB
:105A5300F8740F39F988828983A3A3A3A3A3A3E0CE
:105A6300541860097418550970030259CC88828947
:105A730083EEF0A3EFF074FE650A700474FF650B08
:105A83006003125C0988828983A3A3A3A3A3A3E56C
:105A930009F0A2E0500D88828983A3A3A3A3A3A343
:105AA300D2E2F07401650888828983A3A3A3A3A328
:105AB30070387401125C2DE054186028902AE6E4D3
:105AC3009388828983A3A3A3A3125BF71216618B26
:105AD3000DEA450D60030259CC78007900803979CD
:105AE300020259CE900537E080D7E06401700302CB
:105AF30059CC88828983A3A3A3A3A3A3E0541860EA
:105B030007902AE6E4938004900536E0124B9FE564
:105B130008F00259CC1232F8902ADCE493FAC3E875
:105B23009AE9940040030259CC7A007B00804BEA47
:105B3300FCEBFDEC75F007A4FCAEF075F007EDA4EB
